{
  "_format": "hh-sol-artifact-1",
  "contractName": "SwapRouter",
  "sourceName": "contracts/main/SwapRouter.sol",
  "abi": [
    {
      "inputs": [],
      "name": "InvalidInitialization",
      "type": "error"
    },
    {
      "inputs": [],
      "name": "NotInitializing",
      "type": "error"
    },
    {
      "inputs": [
        {
          "internalType": "uint256",
          "name": "value",
          "type": "uint256"
        }
      ],
      "name": "SafeCastOverflowedUintToInt",
      "type": "error"
    },
    {
      "inputs": [
        {
          "internalType": "address",
          "name": "token",
          "type": "address"
        }
      ],
      "name": "SafeERC20FailedOperation",
      "type": "error"
    },
    {
      "anonymous": false,
      "inputs": [
        {
          "indexed": false,
          "internalType": "uint64",
          "name": "version",
          "type": "uint64"
        }
      ],
      "name": "Initialized",
      "type": "event"
    },
    {
      "inputs": [
        {
          "internalType": "int256",
          "name": "amount0Delta",
          "type": "int256"
        },
        {
          "internalType": "int256",
          "name": "amount1Delta",
          "type": "int256"
        },
        {
          "internalType": "bytes",
          "name": "_data",
          "type": "bytes"
        }
      ],
      "name": "SwapCallback",
      "outputs": [],
      "stateMutability": "nonpayable",
      "type": "function"
    },
    {
      "inputs": [
        {
          "internalType": "contract ISwapPool",
          "name": "pool",
          "type": "address"
        }
      ],
      "name": "addPool",
      "outputs": [],
      "stateMutability": "nonpayable",
      "type": "function"
    },
    {
      "inputs": [
        {
          "components": [
            {
              "internalType": "bytes",
              "name": "path",
              "type": "bytes"
            },
            {
              "internalType": "address",
              "name": "recipient",
              "type": "address"
            },
            {
              "internalType": "uint256",
              "name": "deadline",
              "type": "uint256"
            },
            {
              "internalType": "uint256",
              "name": "amountIn",
              "type": "uint256"
            },
            {
              "internalType": "uint256",
              "name": "amountOutMinimum",
              "type": "uint256"
            }
          ],
          "internalType": "struct ISwapRouter.ExactInputParams",
          "name": "params",
          "type": "tuple"
        }
      ],
      "name": "exactInput",
      "outputs": [
        {
          "internalType": "uint256",
          "name": "amountOut",
          "type": "uint256"
        }
      ],
      "stateMutability": "payable",
      "type": "function"
    },
    {
      "inputs": [
        {
          "components": [
            {
              "internalType": "address",
              "name": "tokenIn",
              "type": "address"
            },
            {
              "internalType": "address",
              "name": "tokenOut",
              "type": "address"
            },
            {
              "internalType": "uint24",
              "name": "fee",
              "type": "uint24"
            },
            {
              "internalType": "address",
              "name": "recipient",
              "type": "address"
            },
            {
              "internalType": "uint256",
              "name": "deadline",
              "type": "uint256"
            },
            {
              "internalType": "uint256",
              "name": "amountIn",
              "type": "uint256"
            },
            {
              "internalType": "uint256",
              "name": "amountOutMinimum",
              "type": "uint256"
            },
            {
              "internalType": "uint160",
              "name": "sqrtPriceLimitX96",
              "type": "uint160"
            }
          ],
          "internalType": "struct ISwapRouter.ExactInputSingleParams",
          "name": "params",
          "type": "tuple"
        }
      ],
      "name": "exactInputSingle",
      "outputs": [
        {
          "internalType": "uint256",
          "name": "amountOut",
          "type": "uint256"
        }
      ],
      "stateMutability": "payable",
      "type": "function"
    },
    {
      "inputs": [
        {
          "components": [
            {
              "internalType": "bytes",
              "name": "path",
              "type": "bytes"
            },
            {
              "internalType": "address",
              "name": "recipient",
              "type": "address"
            },
            {
              "internalType": "uint256",
              "name": "deadline",
              "type": "uint256"
            },
            {
              "internalType": "uint256",
              "name": "amountOut",
              "type": "uint256"
            },
            {
              "internalType": "uint256",
              "name": "amountInMaximum",
              "type": "uint256"
            }
          ],
          "internalType": "struct ISwapRouter.ExactOutputParams",
          "name": "params",
          "type": "tuple"
        }
      ],
      "name": "exactOutput",
      "outputs": [
        {
          "internalType": "uint256",
          "name": "amountIn",
          "type": "uint256"
        }
      ],
      "stateMutability": "payable",
      "type": "function"
    },
    {
      "inputs": [
        {
          "components": [
            {
              "internalType": "address",
              "name": "tokenIn",
              "type": "address"
            },
            {
              "internalType": "address",
              "name": "tokenOut",
              "type": "address"
            },
            {
              "internalType": "uint24",
              "name": "fee",
              "type": "uint24"
            },
            {
              "internalType": "address",
              "name": "recipient",
              "type": "address"
            },
            {
              "internalType": "uint256",
              "name": "deadline",
              "type": "uint256"
            },
            {
              "internalType": "uint256",
              "name": "amountOut",
              "type": "uint256"
            },
            {
              "internalType": "uint256",
              "name": "amountInMaximum",
              "type": "uint256"
            },
            {
              "internalType": "uint160",
              "name": "sqrtPriceLimitX96",
              "type": "uint160"
            }
          ],
          "internalType": "struct ISwapRouter.ExactOutputSingleParams",
          "name": "params",
          "type": "tuple"
        }
      ],
      "name": "exactOutputSingle",
      "outputs": [
        {
          "internalType": "uint256",
          "name": "amountIn",
          "type": "uint256"
        }
      ],
      "stateMutability": "payable",
      "type": "function"
    },
    {
      "inputs": [
        {
          "internalType": "address",
          "name": "tokenA",
          "type": "address"
        },
        {
          "internalType": "address",
          "name": "tokeB",
          "type": "address"
        },
        {
          "internalType": "uint24",
          "name": "fee",
          "type": "uint24"
        }
      ],
      "name": "getPoolAddress",
      "outputs": [
        {
          "internalType": "contract ISwapPool",
          "name": "",
          "type": "address"
        }
      ],
      "stateMutability": "view",
      "type": "function"
    },
    {
      "inputs": [],
      "name": "initialize",
      "outputs": [],
      "stateMutability": "nonpayable",
      "type": "function"
    },
    {
      "inputs": [
        {
          "internalType": "bytes32",
          "name": "",
          "type": "bytes32"
        }
      ],
      "name": "swapPools",
      "outputs": [
        {
          "internalType": "contract ISwapPool",
          "name": "",
          "type": "address"
        }
      ],
      "stateMutability": "view",
      "type": "function"
    },
    {
      "inputs": [
        {
          "internalType": "contract IERC20",
          "name": "token",
          "type": "address"
        },
        {
          "internalType": "uint256",
          "name": "amountMinimum",
          "type": "uint256"
        },
        {
          "internalType": "address",
          "name": "recipient",
          "type": "address"
        }
      ],
      "name": "sweepToken",
      "outputs": [],
      "stateMutability": "payable",
      "type": "function"
    },
    {
      "stateMutability": "payable",
      "type": "receive"
    }
  ],
  "bytecode": "0x608060405260001960005534801561001657600080fd5b50611a07806100266000396000f3fe6080604052600436106100955760003560e01c8063d078401911610059578063d078401914610149578063d914cd4b1461017f578063db3e21981461019f578063df2ab5bb146101b2578063f28c0498146101c557600080fd5b8063414bf389146100a1578063696d6283146100c75780638129fc1c146100ff578063a62b736114610116578063c04b8d591461013657600080fd5b3661009c57005b600080fd5b6100b46100af3660046112dd565b6101d8565b6040519081526020015b60405180910390f35b3480156100d357600080fd5b506100e76100e236600461132a565b6102f3565b6040516001600160a01b0390911681526020016100be565b34801561010b57600080fd5b50610114610326565b005b34801561012257600080fd5b50610114610131366004611375565b61042c565b6100b46101443660046114c1565b610517565b34801561015557600080fd5b506100e7610164366004611565565b6001602052600090815260409020546001600160a01b031681565b34801561018b57600080fd5b5061011461019a36600461157e565b61061f565b6100b46101ad3660046112dd565b610811565b6101146101c036600461159b565b61092b565b6100b46101d33660046115d2565b6109f4565b60008160800135804211156102085760405162461bcd60e51b81526004016101ff9061160d565b60405180910390fd5b6102a160a0840135610220608086016060870161157e565b610231610100870160e0880161157e565b604080518082019091528061024960208a018a61157e565b61025960608b0160408c0161162e565b61026960408c0160208d0161157e565b60405160200161027b9392919061164b565b6040516020818303038152906040528152602001336001600160a01b0316815250610add565b91508260c001358210156102ed5760405162461bcd60e51b8152602060048201526013602482015272151bdbc81b1a5d1d1b19481c9958d95a5d9959606a1b60448201526064016101ff565b50919050565b600060016000610304868686610c4d565b81526020810191909152604001600020546001600160a01b0316949350505050565b7ff0c57e16840df040f15088dc2f81fe391c3923bec73e23a9662efc9c229c6a008054600160401b810460ff16159067ffffffffffffffff1660008115801561036c5750825b905060008267ffffffffffffffff1660011480156103895750303b155b905081158015610397575080155b156103b55760405163f92ee8a960e01b815260040160405180910390fd5b845467ffffffffffffffff1916600117855583156103df57845460ff60401b1916600160401b1785555b831561042557845460ff60401b19168555604051600181527fc7f505b2f371ae2175ee4913f4499e1f2633a7b5936321eed1cdaeb6115181d29060200160405180910390a15b5050505050565b600084138061043b5750600083135b61044457600080fd5b600061045282840184611686565b90506000806104648360000151610ccc565b50915091506000806000891361048f57836001600160a01b0316836001600160a01b031610886104a6565b826001600160a01b0316846001600160a01b031610895b9150915081156104c5576104c08486602001513384610d08565b61050c565b84516104d090610d34565b156104f55784516104e090610d6e565b85526104ef8133600088610da5565b5061050c565b8060008190555061050c8386602001513384610d08565b505050505050505050565b600081604001518042111561053e5760405162461bcd60e51b81526004016101ff9061160d565b335b600061054f8560000151610d34565b905061059b85606001518261056857866020015161056a565b305b600060405180604001604052806105848b60000151610f4a565b8152602001876001600160a01b0316815250610add565b606086015280156105bb5784513092506105b490610d6e565b85526105c8565b84606001519350506105ce565b50610540565b83608001518310156106185760405162461bcd60e51b8152602060048201526013602482015272151bdbc81b1a5d1d1b19481c9958d95a5d9959606a1b60448201526064016101ff565b5050919050565b600061074f826001600160a01b0316630dfe16816040518163ffffffff1660e01b8152600401602060405180830381865afa158015610662573d6000803e3d6000fd5b505050506040513d601f19601f820116820180604052508101906106869190611720565b836001600160a01b031663d21220a76040518163ffffffff1660e01b8152600401602060405180830381865afa1580156106c4573d6000803e3d6000fd5b505050506040513d601f19601f820116820180604052508101906106e89190611720565b846001600160a01b031663ddca3f436040518163ffffffff1660e01b8152600401602060405180830381865afa158015610726573d6000803e3d6000fd5b505050506040513d601f19601f8201168201806040525081019061074a919061173d565b610f68565b6000818152600160205260409020549091506001600160a01b031615801561077f57506001600160a01b03821615155b6107e35760405162461bcd60e51b815260206004820152602f60248201527f53776170526f757465723a20706f6f6c20657869737473206f7220696e76616c60448201526e696420706f6f6c206164647265737360881b60648201526084016101ff565b600090815260016020526040902080546001600160a01b0319166001600160a01b0392909216919091179055565b60008160800135804211156108385760405162461bcd60e51b81526004016101ff9061160d565b6108d460a0840135610850608086016060870161157e565b610861610100870160e0880161157e565b604051806040016040528088602001602081019061087f919061157e565b61088f60608b0160408c0161162e565b61089c60208c018c61157e565b6040516020016108ae9392919061164b565b6040516020818303038152906040528152602001336001600160a01b0316815250610da5565b91508260c0013582111561091f5760405162461bcd60e51b8152602060048201526012602482015271151bdbc81b5d58da081c995c5d595cdd195960721b60448201526064016101ff565b50600019600055919050565b6040516370a0823160e01b81523060048201526000906001600160a01b038516906370a0823190602401602060405180830381865afa158015610972573d6000803e3d6000fd5b505050506040513d601f19601f82011682018060405250810190610996919061175a565b9050828110156109dd5760405162461bcd60e51b815260206004820152601260248201527124b739bab33334b1b4b2b73a103a37b5b2b760711b60448201526064016101ff565b80156109ee576109ee848383610f7f565b50505050565b6000816040013580421115610a1b5760405162461bcd60e51b81526004016101ff9061160d565b610a8e6060840135610a33604086016020870161157e565b6040805180820190915260009080610a4b8980611773565b8080601f01602080910402602001604051908101604052809392919081815260200183838082843760009201919091525050509082525033602090910152610da5565b506000549150826080013582111561091f5760405162461bcd60e51b8152602060048201526012602482015271151bdbc81b5d58da081c995c5d595cdd195960721b60448201526064016101ff565b60006001600160a01b038416610af1573093505b6000806000610b038560000151610ccc565b919450925090506001600160a01b0380831690841610600080600181610b2a888888610c4d565b81526020810191909152604001600020546001600160a01b031663128acb088b85610b548f610fe3565b6001600160a01b038e1615610b69578d610ba2565b87610b9257610b8d600173fffd8963efd1fc6a506488495d951d5263988d266117d7565b610ba2565b610ba26401000276a360016117fe565b8d604051602001610bb3919061186e565b6040516020818303038152906040526040518663ffffffff1660e01b8152600401610be29594939291906118ab565b60408051808303816000875af1158015610c00573d6000803e3d6000fd5b505050506040513d601f19601f82011682018060405250810190610c2491906118f1565b9150915082610c335781610c35565b805b610c3e90611915565b9b9a5050505050505050505050565b6000826001600160a01b0316846001600160a01b031610610c9857828483604051602001610c7d93929190611931565b60405160208183030381529060405280519060200120610cc4565b838383604051602001610cad93929190611931565b604051602081830303815290604052805190602001205b949350505050565b60008080610cda8482611014565b9250610ce7846014611079565b9050610cff610cf86003601461196d565b8590611014565b91509193909250565b306001600160a01b03841603610d2857610d23848383610f7f565b6109ee565b6109ee848484846110d6565b6000610d426003601461196d565b6014610d4f60038261196d565b610d59919061196d565b610d63919061196d565b825110159050919050565b6060610d9f610d7f6003601461196d565b610d8b6003601461196d565b8451610d979190611980565b84919061110f565b92915050565b60006001600160a01b038416610db9573093505b6000806000610dcb8560000151610ccc565b919450925090506001600160a01b0380841690831610600080600181610df2878988610c4d565b81526020810191909152604001600020546001600160a01b031663128acb088b85610e1c8f610fe3565b610e2590611915565b6001600160a01b038e1615610e3a578d610e73565b87610e6357610e5e600173fffd8963efd1fc6a506488495d951d5263988d266117d7565b610e73565b610e736401000276a360016117fe565b8d604051602001610e84919061186e565b6040516020818303038152906040526040518663ffffffff1660e01b8152600401610eb39594939291906118ab565b60408051808303816000875af1158015610ed1573d6000803e3d6000fd5b505050506040513d601f19601f82011682018060405250810190610ef591906118f1565b91509150600083610f0f5781610f0a84611915565b610f19565b82610f1983611915565b90985090506001600160a01b038a16600003610f3b578b8114610f3b57600080fd5b50505050505050949350505050565b6060610d9f60006014610f5e60038261196d565b610d97919061196d565b6000838383604051602001610cad93929190611931565b6040516001600160a01b03838116602483015260448201839052610fde91859182169063a9059cbb906064015b604051602081830303815290604052915060e01b6020820180516001600160e01b03838183161783525050505061121c565b505050565b60006001600160ff1b038211156110105760405163123baf0360e11b8152600481018390526024016101ff565b5090565b600061102182601461196d565b835110156110695760405162461bcd60e51b8152602060048201526015602482015274746f416464726573735f6f75744f66426f756e647360581b60448201526064016101ff565b500160200151600160601b900490565b600061108682600361196d565b835110156110cd5760405162461bcd60e51b8152602060048201526014602482015273746f55696e7432345f6f75744f66426f756e647360601b60448201526064016101ff565b50016003015190565b6040516001600160a01b0384811660248301528381166044830152606482018390526109ee9186918216906323b872dd90608401610fac565b60608161111d81601f61196d565b101561115c5760405162461bcd60e51b815260206004820152600e60248201526d736c6963655f6f766572666c6f7760901b60448201526064016101ff565b611166828461196d565b845110156111aa5760405162461bcd60e51b8152602060048201526011602482015270736c6963655f6f75744f66426f756e647360781b60448201526064016101ff565b6060821580156111c95760405191506000825260208201604052611213565b6040519150601f8416801560200281840101858101878315602002848b0101015b818310156112025780518352602092830192016111ea565b5050858452601f01601f1916604052505b50949350505050565b6000826001600160a01b03166000836040516112389190611993565b60006040518083038185875af1925050503d8060008114611275576040519150601f19603f3d011682016040523d82523d6000602084013e61127a565b606091505b5091505080516000141580156112a157508080602001905181019061129f91906119af565b155b15610fde57604051635274afe760e01b81526001600160a01b03841660048201526024016101ff565b600061010082840312156102ed57600080fd5b600061010082840312156112f057600080fd5b6112fa83836112ca565b9392505050565b6001600160a01b038116811461131657600080fd5b50565b62ffffff8116811461131657600080fd5b60008060006060848603121561133f57600080fd5b833561134a81611301565b9250602084013561135a81611301565b9150604084013561136a81611319565b809150509250925092565b6000806000806060858703121561138b57600080fd5b8435935060208501359250604085013567ffffffffffffffff808211156113b157600080fd5b818701915087601f8301126113c557600080fd5b8135818111156113d457600080fd5b8860208285010111156113e657600080fd5b95989497505060200194505050565b634e487b7160e01b600052604160045260246000fd5b60405160a0810167ffffffffffffffff8111828210171561142e5761142e6113f5565b60405290565b600082601f83011261144557600080fd5b813567ffffffffffffffff80821115611460576114606113f5565b604051601f8301601f19908116603f01168101908282118183101715611488576114886113f5565b816040528381528660208588010111156114a157600080fd5b836020870160208301376000602085830101528094505050505092915050565b6000602082840312156114d357600080fd5b813567ffffffffffffffff808211156114eb57600080fd5b9083019060a082860312156114ff57600080fd5b61150761140b565b82358281111561151657600080fd5b61152287828601611434565b8252506020830135915061153582611301565b81602082015260408301356040820152606083013560608201526080830135608082015280935050505092915050565b60006020828403121561157757600080fd5b5035919050565b60006020828403121561159057600080fd5b81356112fa81611301565b6000806000606084860312156115b057600080fd5b83356115bb81611301565b925060208401359150604084013561136a81611301565b6000602082840312156115e457600080fd5b813567ffffffffffffffff8111156115fb57600080fd5b820160a081850312156112fa57600080fd5b602080825260079082015266115e1c1a5c995960ca1b604082015260600190565b60006020828403121561164057600080fd5b81356112fa81611319565b606093841b6bffffffffffffffffffffffff19908116825260e89390931b6001600160e81b0319166014820152921b166017820152602b0190565b60006020828403121561169857600080fd5b813567ffffffffffffffff808211156116b057600080fd5b90830190604082860312156116c457600080fd5b6040516040810181811083821117156116df576116df6113f5565b6040528235828111156116f157600080fd5b6116fd87828601611434565b8252506020830135925061171083611301565b6020810192909252509392505050565b60006020828403121561173257600080fd5b81516112fa81611301565b60006020828403121561174f57600080fd5b81516112fa81611319565b60006020828403121561176c57600080fd5b5051919050565b6000808335601e1984360301811261178a57600080fd5b83018035915067ffffffffffffffff8211156117a557600080fd5b6020019150368190038213156117ba57600080fd5b9250929050565b634e487b7160e01b600052601160045260246000fd5b6001600160a01b038281168282160390808211156117f7576117f76117c1565b5092915050565b6001600160a01b038181168382160190808211156117f7576117f76117c1565b60005b83811015611839578181015183820152602001611821565b50506000910152565b6000815180845261185a81602086016020860161181e565b601f01601f19169290920160200192915050565b60208152600082516040602084015261188a6060840182611842565b602094909401516001600160a01b0316604093909301929092525090919050565b6001600160a01b0386811682528515156020830152604082018590528316606082015260a0608082018190526000906118e690830184611842565b979650505050505050565b6000806040838503121561190457600080fd5b505080516020909101519092909150565b6000600160ff1b820161192a5761192a6117c1565b5060000390565b606093841b6bffffffffffffffffffffffff1990811682529290931b909116601483015260e81b6001600160e81b0319166028820152602b0190565b80820180821115610d9f57610d9f6117c1565b81810381811115610d9f57610d9f6117c1565b600082516119a581846020870161181e565b9190910192915050565b6000602082840312156119c157600080fd5b815180151581146112fa57600080fdfea26469706673582212200624e90f4f80b16788472f62d5282bd0050ece3da2126b253de0999d268136e264736f6c63430008150033",
  "linkReferences": {},
  "deployedLinkReferences": {}
}