{
  "_format": "hh-sol-artifact-1",
  "contractName": "SwapRouterV2",
  "sourceName": "contracts/main/SwapRouterV2.sol",
  "abi": [
    {
      "inputs": [],
      "name": "InvalidInitialization",
      "type": "error"
    },
    {
      "inputs": [],
      "name": "NotInitializing",
      "type": "error"
    },
    {
      "inputs": [
        {
          "internalType": "address",
          "name": "token",
          "type": "address"
        }
      ],
      "name": "SafeERC20FailedOperation",
      "type": "error"
    },
    {
      "anonymous": false,
      "inputs": [
        {
          "indexed": false,
          "internalType": "uint64",
          "name": "version",
          "type": "uint64"
        }
      ],
      "name": "Initialized",
      "type": "event"
    },
    {
      "inputs": [
        {
          "internalType": "int256",
          "name": "amount0Delta",
          "type": "int256"
        },
        {
          "internalType": "int256",
          "name": "amount1Delta",
          "type": "int256"
        },
        {
          "internalType": "bytes",
          "name": "_data",
          "type": "bytes"
        }
      ],
      "name": "SwapCallback",
      "outputs": [],
      "stateMutability": "nonpayable",
      "type": "function"
    },
    {
      "inputs": [
        {
          "components": [
            {
              "internalType": "bytes",
              "name": "path",
              "type": "bytes"
            },
            {
              "internalType": "address",
              "name": "recipient",
              "type": "address"
            },
            {
              "internalType": "uint256",
              "name": "deadline",
              "type": "uint256"
            },
            {
              "internalType": "uint256",
              "name": "amountIn",
              "type": "uint256"
            },
            {
              "internalType": "uint256",
              "name": "amountOutMinimum",
              "type": "uint256"
            }
          ],
          "internalType": "struct ISwapRouter.ExactInputParams",
          "name": "params",
          "type": "tuple"
        }
      ],
      "name": "exactInput",
      "outputs": [
        {
          "internalType": "uint256",
          "name": "amountOut",
          "type": "uint256"
        }
      ],
      "stateMutability": "payable",
      "type": "function"
    },
    {
      "inputs": [
        {
          "components": [
            {
              "internalType": "address",
              "name": "tokenIn",
              "type": "address"
            },
            {
              "internalType": "address",
              "name": "tokenOut",
              "type": "address"
            },
            {
              "internalType": "uint24",
              "name": "fee",
              "type": "uint24"
            },
            {
              "internalType": "address",
              "name": "recipient",
              "type": "address"
            },
            {
              "internalType": "uint256",
              "name": "deadline",
              "type": "uint256"
            },
            {
              "internalType": "uint256",
              "name": "amountIn",
              "type": "uint256"
            },
            {
              "internalType": "uint256",
              "name": "amountOutMinimum",
              "type": "uint256"
            },
            {
              "internalType": "uint160",
              "name": "sqrtPriceLimitX96",
              "type": "uint160"
            }
          ],
          "internalType": "struct ISwapRouter.ExactInputSingleParams",
          "name": "params",
          "type": "tuple"
        }
      ],
      "name": "exactInputSingle",
      "outputs": [
        {
          "internalType": "uint256",
          "name": "amountOut",
          "type": "uint256"
        }
      ],
      "stateMutability": "payable",
      "type": "function"
    },
    {
      "inputs": [
        {
          "components": [
            {
              "internalType": "bytes",
              "name": "path",
              "type": "bytes"
            },
            {
              "internalType": "address",
              "name": "recipient",
              "type": "address"
            },
            {
              "internalType": "uint256",
              "name": "deadline",
              "type": "uint256"
            },
            {
              "internalType": "uint256",
              "name": "amountOut",
              "type": "uint256"
            },
            {
              "internalType": "uint256",
              "name": "amountInMaximum",
              "type": "uint256"
            }
          ],
          "internalType": "struct ISwapRouter.ExactOutputParams",
          "name": "params",
          "type": "tuple"
        }
      ],
      "name": "exactOutput",
      "outputs": [
        {
          "internalType": "uint256",
          "name": "amountIn",
          "type": "uint256"
        }
      ],
      "stateMutability": "payable",
      "type": "function"
    },
    {
      "inputs": [
        {
          "components": [
            {
              "internalType": "address",
              "name": "tokenIn",
              "type": "address"
            },
            {
              "internalType": "address",
              "name": "tokenOut",
              "type": "address"
            },
            {
              "internalType": "uint24",
              "name": "fee",
              "type": "uint24"
            },
            {
              "internalType": "address",
              "name": "recipient",
              "type": "address"
            },
            {
              "internalType": "uint256",
              "name": "deadline",
              "type": "uint256"
            },
            {
              "internalType": "uint256",
              "name": "amountOut",
              "type": "uint256"
            },
            {
              "internalType": "uint256",
              "name": "amountInMaximum",
              "type": "uint256"
            },
            {
              "internalType": "uint160",
              "name": "sqrtPriceLimitX96",
              "type": "uint160"
            }
          ],
          "internalType": "struct ISwapRouter.ExactOutputSingleParams",
          "name": "params",
          "type": "tuple"
        }
      ],
      "name": "exactOutputSingle",
      "outputs": [
        {
          "internalType": "uint256",
          "name": "amountIn",
          "type": "uint256"
        }
      ],
      "stateMutability": "payable",
      "type": "function"
    },
    {
      "inputs": [
        {
          "internalType": "contract ISwapPoolV2Actions",
          "name": "swapPool_",
          "type": "address"
        }
      ],
      "name": "initialize",
      "outputs": [],
      "stateMutability": "nonpayable",
      "type": "function"
    },
    {
      "inputs": [],
      "name": "swapPool",
      "outputs": [
        {
          "internalType": "contract ISwapPoolV2Actions",
          "name": "",
          "type": "address"
        }
      ],
      "stateMutability": "view",
      "type": "function"
    },
    {
      "inputs": [
        {
          "internalType": "contract IERC20",
          "name": "token",
          "type": "address"
        },
        {
          "internalType": "uint256",
          "name": "amountMinimum",
          "type": "uint256"
        },
        {
          "internalType": "address",
          "name": "recipient",
          "type": "address"
        }
      ],
      "name": "sweepToken",
      "outputs": [],
      "stateMutability": "payable",
      "type": "function"
    },
    {
      "stateMutability": "payable",
      "type": "receive"
    }
  ],
  "bytecode": "0x608060405234801561001057600080fd5b506116a4806100206000396000f3fe60806040526004361061007f5760003560e01c8063c4d66de81161004e578063c4d66de81461011e578063db3e21981461013e578063df2ab5bb14610151578063f28c04981461016457600080fd5b8063414bf3891461008b578063982697dd146100b1578063a62b7361146100e9578063c04b8d591461010b57600080fd5b3661008657005b600080fd5b61009e61009936600461100f565b610177565b6040519081526020015b60405180910390f35b3480156100bd57600080fd5b506001546100d1906001600160a01b031681565b6040516001600160a01b0390911681526020016100a8565b3480156100f557600080fd5b50610109610104366004611033565b610292565b005b61009e610119366004611197565b61037d565b34801561012a57600080fd5b5061010961013936600461123b565b610485565b61009e61014c36600461100f565b6105ad565b61010961015f366004611258565b6106c7565b61009e61017236600461129a565b610790565b60008160800135804211156101a75760405162461bcd60e51b815260040161019e906112d5565b60405180910390fd5b61024060a08401356101bf608086016060870161123b565b6101d0610100870160e0880161123b565b60408051808201909152806101e860208a018a61123b565b6101f860608b0160408c016112f6565b61020860408c0160208d0161123b565b60405160200161021a9392919061131b565b6040516020818303038152906040528152602001336001600160a01b0316815250610879565b91508260c0013582101561028c5760405162461bcd60e51b8152602060048201526013602482015272151bdbc81b1a5d1d1b19481c9958d95a5d9959606a1b604482015260640161019e565b50919050565b60008413806102a15750600083135b6102aa57600080fd5b60006102b882840184611356565b90506000806102ca83600001516109e3565b5091509150600080600089136102f557836001600160a01b0316836001600160a01b0316108861030c565b826001600160a01b0316846001600160a01b031610895b91509150811561032b576103268486602001513384610a1f565b610372565b845161033690610a4b565b1561035b57845161034690610a85565b85526103558133600088610abc565b50610372565b806000819055506103728386602001513384610a1f565b505050505050505050565b60008160400151804211156103a45760405162461bcd60e51b815260040161019e906112d5565b335b60006103b58560000151610a4b565b90506104018560600151826103ce5786602001516103d0565b305b600060405180604001604052806103ea8b60000151610c45565b8152602001876001600160a01b0316815250610879565b6060860152801561042157845130925061041a90610a85565b855261042e565b8460600151935050610434565b506103a6565b836080015183101561047e5760405162461bcd60e51b8152602060048201526013602482015272151bdbc81b1a5d1d1b19481c9958d95a5d9959606a1b604482015260640161019e565b5050919050565b7ff0c57e16840df040f15088dc2f81fe391c3923bec73e23a9662efc9c229c6a008054600160401b810460ff16159067ffffffffffffffff166000811580156104cb5750825b905060008267ffffffffffffffff1660011480156104e85750303b155b9050811580156104f6575080155b156105145760405163f92ee8a960e01b815260040160405180910390fd5b845467ffffffffffffffff19166001178555831561053e57845460ff60401b1916600160401b1785555b600180546001600160a01b0319166001600160a01b03881617905560001960005583156105a557845460ff60401b19168555604051600181527fc7f505b2f371ae2175ee4913f4499e1f2633a7b5936321eed1cdaeb6115181d29060200160405180910390a15b505050505050565b60008160800135804211156105d45760405162461bcd60e51b815260040161019e906112d5565b61067060a08401356105ec608086016060870161123b565b6105fd610100870160e0880161123b565b604051806040016040528088602001602081019061061b919061123b565b61062b60608b0160408c016112f6565b61063860208c018c61123b565b60405160200161064a9392919061131b565b6040516020818303038152906040528152602001336001600160a01b0316815250610abc565b91508260c001358211156106bb5760405162461bcd60e51b8152602060048201526012602482015271151bdbc81b5d58da081c995c5d595cdd195960721b604482015260640161019e565b50600019600055919050565b6040516370a0823160e01b81523060048201526000906001600160a01b038516906370a0823190602401602060405180830381865afa15801561070e573d6000803e3d6000fd5b505050506040513d601f19601f8201168201806040525081019061073291906113f0565b9050828110156107795760405162461bcd60e51b815260206004820152601260248201527124b739bab33334b1b4b2b73a103a37b5b2b760711b604482015260640161019e565b801561078a5761078a848383610c63565b50505050565b60008160400135804211156107b75760405162461bcd60e51b815260040161019e906112d5565b61082a60608401356107cf604086016020870161123b565b60408051808201909152600090806107e78980611409565b8080601f01602080910402602001604051908101604052809392919081815260200183838082843760009201919091525050509082525033602090910152610abc565b50600054915082608001358211156106bb5760405162461bcd60e51b8152602060048201526012602482015271151bdbc81b5d58da081c995c5d595cdd195960721b604482015260640161019e565b60006001600160a01b03841661088d573093505b600080600061089f85600001516109e3565b60015492955090935091506001600160a01b038084168186161091600091829116632a5a0c9e6108d0888888610cc7565b8c886001600160a01b03168a6001600160a01b0316108f8e6001600160a01b03166000146108fe578e610937565b8861092757610922600173fffd8963efd1fc6a506488495d951d5263988d2661146d565b610937565b6109376401000276a36001611494565b8e6040516020016109489190611504565b6040516020818303038152906040526040518763ffffffff1660e01b815260040161097896959493929190611541565b60408051808303816000875af1158015610996573d6000803e3d6000fd5b505050506040513d601f19601f820116820180604052508101906109ba919061158e565b91509150826109c957816109cb565b805b6109d4906115b2565b9b9a5050505050505050505050565b600080806109f18482610d46565b92506109fe846014610dab565b9050610a16610a0f600360146115ce565b8590610d46565b91509193909250565b306001600160a01b03841603610a3f57610a3a848383610c63565b61078a565b61078a84848484610e08565b6000610a59600360146115ce565b6014610a666003826115ce565b610a7091906115ce565b610a7a91906115ce565b825110159050919050565b6060610ab6610a96600360146115ce565b610aa2600360146115ce565b8451610aae91906115e1565b849190610e41565b92915050565b60006001600160a01b038416610ad0573093505b6000806000610ae285600001516109e3565b60015492955090935091506001600160a01b038085168185161091600091829116632a5a0c9e610b13878988610cc7565b8c868f610b1f906115b2565b6001600160a01b038f1615610b34578e610b6d565b88610b5d57610b58600173fffd8963efd1fc6a506488495d951d5263988d2661146d565b610b6d565b610b6d6401000276a36001611494565b8e604051602001610b7e9190611504565b6040516020818303038152906040526040518763ffffffff1660e01b8152600401610bae96959493929190611541565b60408051808303816000875af1158015610bcc573d6000803e3d6000fd5b505050506040513d601f19601f82011682018060405250810190610bf0919061158e565b91509150600083610c0a5781610c05846115b2565b610c14565b82610c14836115b2565b90985090506001600160a01b038a16600003610c36578b8114610c3657600080fd5b50505050505050949350505050565b6060610ab660006014610c596003826115ce565b610aae91906115ce565b6040516001600160a01b03838116602483015260448201839052610cc291859182169063a9059cbb906064015b604051602081830303815290604052915060e01b6020820180516001600160e01b038381831617835250505050610f4e565b505050565b6000826001600160a01b0316846001600160a01b031610610d1257828483604051602001610cf7939291906115f4565b60405160208183030381529060405280519060200120610d3e565b838383604051602001610d27939291906115f4565b604051602081830303815290604052805190602001205b949350505050565b6000610d538260146115ce565b83511015610d9b5760405162461bcd60e51b8152602060048201526015602482015274746f416464726573735f6f75744f66426f756e647360581b604482015260640161019e565b500160200151600160601b900490565b6000610db88260036115ce565b83511015610dff5760405162461bcd60e51b8152602060048201526014602482015273746f55696e7432345f6f75744f66426f756e647360601b604482015260640161019e565b50016003015190565b6040516001600160a01b03848116602483015283811660448301526064820183905261078a9186918216906323b872dd90608401610c90565b606081610e4f81601f6115ce565b1015610e8e5760405162461bcd60e51b815260206004820152600e60248201526d736c6963655f6f766572666c6f7760901b604482015260640161019e565b610e9882846115ce565b84511015610edc5760405162461bcd60e51b8152602060048201526011602482015270736c6963655f6f75744f66426f756e647360781b604482015260640161019e565b606082158015610efb5760405191506000825260208201604052610f45565b6040519150601f8416801560200281840101858101878315602002848b0101015b81831015610f34578051835260209283019201610f1c565b5050858452601f01601f1916604052505b50949350505050565b6000826001600160a01b0316600083604051610f6a9190611630565b60006040518083038185875af1925050503d8060008114610fa7576040519150601f19603f3d011682016040523d82523d6000602084013e610fac565b606091505b509150508051600014158015610fd3575080806020019051810190610fd1919061164c565b155b15610cc257604051635274afe760e01b81526001600160a01b038416600482015260240161019e565b6000610100828403121561028c57600080fd5b6000610100828403121561102257600080fd5b61102c8383610ffc565b9392505050565b6000806000806060858703121561104957600080fd5b8435935060208501359250604085013567ffffffffffffffff8082111561106f57600080fd5b818701915087601f83011261108357600080fd5b81358181111561109257600080fd5b8860208285010111156110a457600080fd5b95989497505060200194505050565b634e487b7160e01b600052604160045260246000fd5b60405160a0810167ffffffffffffffff811182821017156110ec576110ec6110b3565b60405290565b600082601f83011261110357600080fd5b813567ffffffffffffffff8082111561111e5761111e6110b3565b604051601f8301601f19908116603f01168101908282118183101715611146576111466110b3565b8160405283815286602085880101111561115f57600080fd5b836020870160208301376000602085830101528094505050505092915050565b6001600160a01b038116811461119457600080fd5b50565b6000602082840312156111a957600080fd5b813567ffffffffffffffff808211156111c157600080fd5b9083019060a082860312156111d557600080fd5b6111dd6110c9565b8235828111156111ec57600080fd5b6111f8878286016110f2565b8252506020830135915061120b8261117f565b81602082015260408301356040820152606083013560608201526080830135608082015280935050505092915050565b60006020828403121561124d57600080fd5b813561102c8161117f565b60008060006060848603121561126d57600080fd5b83356112788161117f565b925060208401359150604084013561128f8161117f565b809150509250925092565b6000602082840312156112ac57600080fd5b813567ffffffffffffffff8111156112c357600080fd5b820160a0818503121561102c57600080fd5b602080825260079082015266115e1c1a5c995960ca1b604082015260600190565b60006020828403121561130857600080fd5b813562ffffff8116811461102c57600080fd5b606093841b6bffffffffffffffffffffffff19908116825260e89390931b6001600160e81b0319166014820152921b166017820152602b0190565b60006020828403121561136857600080fd5b813567ffffffffffffffff8082111561138057600080fd5b908301906040828603121561139457600080fd5b6040516040810181811083821117156113af576113af6110b3565b6040528235828111156113c157600080fd5b6113cd878286016110f2565b825250602083013592506113e08361117f565b6020810192909252509392505050565b60006020828403121561140257600080fd5b5051919050565b6000808335601e1984360301811261142057600080fd5b83018035915067ffffffffffffffff82111561143b57600080fd5b60200191503681900382131561145057600080fd5b9250929050565b634e487b7160e01b600052601160045260246000fd5b6001600160a01b0382811682821603908082111561148d5761148d611457565b5092915050565b6001600160a01b0381811683821601908082111561148d5761148d611457565b60005b838110156114cf5781810151838201526020016114b7565b50506000910152565b600081518084526114f08160208601602086016114b4565b601f01601f19169290920160200192915050565b60208152600082516040602084015261152060608401826114d8565b602094909401516001600160a01b0316604093909301929092525090919050565b8681526001600160a01b0386811660208301528515156040830152606082018590528316608082015260c060a08201819052600090611582908301846114d8565b98975050505050505050565b600080604083850312156115a157600080fd5b505080516020909101519092909150565b6000600160ff1b82016115c7576115c7611457565b5060000390565b80820180821115610ab657610ab6611457565b81810381811115610ab657610ab6611457565b606093841b6bffffffffffffffffffffffff1990811682529290931b909116601483015260e81b6001600160e81b0319166028820152602b0190565b600082516116428184602087016114b4565b9190910192915050565b60006020828403121561165e57600080fd5b8151801515811461102c57600080fdfea2646970667358221220da5a0b387ad1794ff04bbccea34ddaa83e1bf9a5c2f16de772e9befcbcd59a8e64736f6c63430008150033",
  "linkReferences": {},
  "deployedLinkReferences": {}
}