{
  "_format": "hh-sol-artifact-1",
  "contractName": "SwapPool",
  "sourceName": "contracts/main/SwapPool.sol",
  "abi": [
    {
      "inputs": [],
      "name": "DivisionByZeroError",
      "type": "error"
    },
    {
      "inputs": [],
      "name": "InvalidInitialization",
      "type": "error"
    },
    {
      "inputs": [],
      "name": "NoDelegateCallAllowed",
      "type": "error"
    },
    {
      "inputs": [],
      "name": "NotInitializing",
      "type": "error"
    },
    {
      "inputs": [],
      "name": "OverflowError",
      "type": "error"
    },
    {
      "inputs": [
        {
          "internalType": "address",
          "name": "owner",
          "type": "address"
        }
      ],
      "name": "OwnableInvalidOwner",
      "type": "error"
    },
    {
      "inputs": [
        {
          "internalType": "address",
          "name": "account",
          "type": "address"
        }
      ],
      "name": "OwnableUnauthorizedAccount",
      "type": "error"
    },
    {
      "inputs": [
        {
          "internalType": "uint8",
          "name": "bits",
          "type": "uint8"
        },
        {
          "internalType": "uint256",
          "name": "value",
          "type": "uint256"
        }
      ],
      "name": "SafeCastOverflowedUintDowncast",
      "type": "error"
    },
    {
      "inputs": [
        {
          "internalType": "uint256",
          "name": "value",
          "type": "uint256"
        }
      ],
      "name": "SafeCastOverflowedUintToInt",
      "type": "error"
    },
    {
      "inputs": [
        {
          "internalType": "address",
          "name": "token",
          "type": "address"
        }
      ],
      "name": "SafeERC20FailedOperation",
      "type": "error"
    },
    {
      "anonymous": false,
      "inputs": [
        {
          "indexed": true,
          "internalType": "address",
          "name": "owner",
          "type": "address"
        },
        {
          "indexed": true,
          "internalType": "int24",
          "name": "tickLower",
          "type": "int24"
        },
        {
          "indexed": true,
          "internalType": "int24",
          "name": "tickUpper",
          "type": "int24"
        },
        {
          "indexed": false,
          "internalType": "uint128",
          "name": "amount",
          "type": "uint128"
        },
        {
          "indexed": false,
          "internalType": "uint256",
          "name": "amount0",
          "type": "uint256"
        },
        {
          "indexed": false,
          "internalType": "uint256",
          "name": "amount1",
          "type": "uint256"
        }
      ],
      "name": "Burn",
      "type": "event"
    },
    {
      "anonymous": false,
      "inputs": [
        {
          "indexed": true,
          "internalType": "address",
          "name": "owner",
          "type": "address"
        },
        {
          "indexed": false,
          "internalType": "address",
          "name": "recipient",
          "type": "address"
        },
        {
          "indexed": true,
          "internalType": "int24",
          "name": "tickLower",
          "type": "int24"
        },
        {
          "indexed": true,
          "internalType": "int24",
          "name": "tickUpper",
          "type": "int24"
        },
        {
          "indexed": false,
          "internalType": "uint128",
          "name": "amount0",
          "type": "uint128"
        },
        {
          "indexed": false,
          "internalType": "uint128",
          "name": "amount1",
          "type": "uint128"
        }
      ],
      "name": "Collect",
      "type": "event"
    },
    {
      "anonymous": false,
      "inputs": [
        {
          "indexed": true,
          "internalType": "address",
          "name": "sender",
          "type": "address"
        },
        {
          "indexed": true,
          "internalType": "address",
          "name": "recipient",
          "type": "address"
        },
        {
          "indexed": false,
          "internalType": "uint128",
          "name": "amount0",
          "type": "uint128"
        },
        {
          "indexed": false,
          "internalType": "uint128",
          "name": "amount1",
          "type": "uint128"
        }
      ],
      "name": "CollectProtocol",
      "type": "event"
    },
    {
      "anonymous": false,
      "inputs": [
        {
          "indexed": true,
          "internalType": "address",
          "name": "sender",
          "type": "address"
        },
        {
          "indexed": true,
          "internalType": "address",
          "name": "recipient",
          "type": "address"
        },
        {
          "indexed": false,
          "internalType": "uint256",
          "name": "amount0",
          "type": "uint256"
        },
        {
          "indexed": false,
          "internalType": "uint256",
          "name": "amount1",
          "type": "uint256"
        },
        {
          "indexed": false,
          "internalType": "uint256",
          "name": "paid0",
          "type": "uint256"
        },
        {
          "indexed": false,
          "internalType": "uint256",
          "name": "paid1",
          "type": "uint256"
        }
      ],
      "name": "Flash",
      "type": "event"
    },
    {
      "anonymous": false,
      "inputs": [
        {
          "indexed": false,
          "internalType": "uint16",
          "name": "observationCardinalityNextOld",
          "type": "uint16"
        },
        {
          "indexed": false,
          "internalType": "uint16",
          "name": "observationCardinalityNextNew",
          "type": "uint16"
        }
      ],
      "name": "IncreaseObservationCardinalityNext",
      "type": "event"
    },
    {
      "anonymous": false,
      "inputs": [
        {
          "indexed": false,
          "internalType": "uint160",
          "name": "sqrtPriceX96",
          "type": "uint160"
        },
        {
          "indexed": false,
          "internalType": "int24",
          "name": "tick",
          "type": "int24"
        }
      ],
      "name": "Initialize",
      "type": "event"
    },
    {
      "anonymous": false,
      "inputs": [
        {
          "indexed": false,
          "internalType": "uint64",
          "name": "version",
          "type": "uint64"
        }
      ],
      "name": "Initialized",
      "type": "event"
    },
    {
      "anonymous": false,
      "inputs": [
        {
          "indexed": false,
          "internalType": "address",
          "name": "sender",
          "type": "address"
        },
        {
          "indexed": true,
          "internalType": "address",
          "name": "owner",
          "type": "address"
        },
        {
          "indexed": true,
          "internalType": "int24",
          "name": "tickLower",
          "type": "int24"
        },
        {
          "indexed": true,
          "internalType": "int24",
          "name": "tickUpper",
          "type": "int24"
        },
        {
          "indexed": false,
          "internalType": "uint128",
          "name": "amount",
          "type": "uint128"
        },
        {
          "indexed": false,
          "internalType": "uint256",
          "name": "amount0",
          "type": "uint256"
        },
        {
          "indexed": false,
          "internalType": "uint256",
          "name": "amount1",
          "type": "uint256"
        }
      ],
      "name": "Mint",
      "type": "event"
    },
    {
      "anonymous": false,
      "inputs": [
        {
          "indexed": true,
          "internalType": "address",
          "name": "previousOwner",
          "type": "address"
        },
        {
          "indexed": true,
          "internalType": "address",
          "name": "newOwner",
          "type": "address"
        }
      ],
      "name": "OwnershipTransferred",
      "type": "event"
    },
    {
      "anonymous": false,
      "inputs": [
        {
          "indexed": false,
          "internalType": "uint8",
          "name": "feeProtocol0Old",
          "type": "uint8"
        },
        {
          "indexed": false,
          "internalType": "uint8",
          "name": "feeProtocol1Old",
          "type": "uint8"
        },
        {
          "indexed": false,
          "internalType": "uint8",
          "name": "feeProtocol0New",
          "type": "uint8"
        },
        {
          "indexed": false,
          "internalType": "uint8",
          "name": "feeProtocol1New",
          "type": "uint8"
        }
      ],
      "name": "SetFeeProtocol",
      "type": "event"
    },
    {
      "anonymous": false,
      "inputs": [
        {
          "indexed": true,
          "internalType": "address",
          "name": "sender",
          "type": "address"
        },
        {
          "indexed": true,
          "internalType": "address",
          "name": "recipient",
          "type": "address"
        },
        {
          "indexed": false,
          "internalType": "int256",
          "name": "amount0",
          "type": "int256"
        },
        {
          "indexed": false,
          "internalType": "int256",
          "name": "amount1",
          "type": "int256"
        },
        {
          "indexed": false,
          "internalType": "uint160",
          "name": "sqrtPriceX96",
          "type": "uint160"
        },
        {
          "indexed": false,
          "internalType": "uint128",
          "name": "liquidity",
          "type": "uint128"
        },
        {
          "indexed": false,
          "internalType": "int24",
          "name": "tick",
          "type": "int24"
        }
      ],
      "name": "Swap",
      "type": "event"
    },
    {
      "inputs": [
        {
          "internalType": "int24",
          "name": "tickLower",
          "type": "int24"
        },
        {
          "internalType": "int24",
          "name": "tickUpper",
          "type": "int24"
        },
        {
          "internalType": "uint128",
          "name": "amount",
          "type": "uint128"
        }
      ],
      "name": "burn",
      "outputs": [
        {
          "internalType": "uint256",
          "name": "amount0",
          "type": "uint256"
        },
        {
          "internalType": "uint256",
          "name": "amount1",
          "type": "uint256"
        }
      ],
      "stateMutability": "nonpayable",
      "type": "function"
    },
    {
      "inputs": [
        {
          "internalType": "address",
          "name": "recipient",
          "type": "address"
        },
        {
          "internalType": "int24",
          "name": "tickLower",
          "type": "int24"
        },
        {
          "internalType": "int24",
          "name": "tickUpper",
          "type": "int24"
        },
        {
          "internalType": "uint128",
          "name": "amount0Requested",
          "type": "uint128"
        },
        {
          "internalType": "uint128",
          "name": "amount1Requested",
          "type": "uint128"
        }
      ],
      "name": "collect",
      "outputs": [
        {
          "internalType": "uint128",
          "name": "amount0",
          "type": "uint128"
        },
        {
          "internalType": "uint128",
          "name": "amount1",
          "type": "uint128"
        }
      ],
      "stateMutability": "nonpayable",
      "type": "function"
    },
    {
      "inputs": [
        {
          "internalType": "address",
          "name": "recipient",
          "type": "address"
        },
        {
          "internalType": "uint128",
          "name": "amount0Requested",
          "type": "uint128"
        },
        {
          "internalType": "uint128",
          "name": "amount1Requested",
          "type": "uint128"
        }
      ],
      "name": "collectProtocol",
      "outputs": [
        {
          "internalType": "uint128",
          "name": "amount0",
          "type": "uint128"
        },
        {
          "internalType": "uint128",
          "name": "amount1",
          "type": "uint128"
        }
      ],
      "stateMutability": "nonpayable",
      "type": "function"
    },
    {
      "inputs": [],
      "name": "fee",
      "outputs": [
        {
          "internalType": "uint24",
          "name": "",
          "type": "uint24"
        }
      ],
      "stateMutability": "view",
      "type": "function"
    },
    {
      "inputs": [],
      "name": "feeGrowthGlobal0X128",
      "outputs": [
        {
          "internalType": "uint256",
          "name": "",
          "type": "uint256"
        }
      ],
      "stateMutability": "view",
      "type": "function"
    },
    {
      "inputs": [],
      "name": "feeGrowthGlobal1X128",
      "outputs": [
        {
          "internalType": "uint256",
          "name": "",
          "type": "uint256"
        }
      ],
      "stateMutability": "view",
      "type": "function"
    },
    {
      "inputs": [
        {
          "internalType": "address",
          "name": "recipient",
          "type": "address"
        },
        {
          "internalType": "uint256",
          "name": "amount0",
          "type": "uint256"
        },
        {
          "internalType": "uint256",
          "name": "amount1",
          "type": "uint256"
        },
        {
          "internalType": "bytes",
          "name": "data",
          "type": "bytes"
        }
      ],
      "name": "flash",
      "outputs": [],
      "stateMutability": "nonpayable",
      "type": "function"
    },
    {
      "inputs": [
        {
          "internalType": "uint16",
          "name": "observationCardinalityNext",
          "type": "uint16"
        }
      ],
      "name": "increaseObservationCardinalityNext",
      "outputs": [],
      "stateMutability": "nonpayable",
      "type": "function"
    },
    {
      "inputs": [
        {
          "internalType": "contract IERC20",
          "name": "tokenA_",
          "type": "address"
        },
        {
          "internalType": "contract IERC20",
          "name": "tokenB_",
          "type": "address"
        },
        {
          "internalType": "uint160",
          "name": "sqrtPriceX96",
          "type": "uint160"
        },
        {
          "internalType": "uint24",
          "name": "fee_",
          "type": "uint24"
        },
        {
          "internalType": "int24",
          "name": "tickSpacing_",
          "type": "int24"
        },
        {
          "internalType": "address",
          "name": "owner_",
          "type": "address"
        },
        {
          "internalType": "contract IOracleObservation",
          "name": "oracleAddress_",
          "type": "address"
        }
      ],
      "name": "initialize",
      "outputs": [],
      "stateMutability": "nonpayable",
      "type": "function"
    },
    {
      "inputs": [],
      "name": "liquidity",
      "outputs": [
        {
          "internalType": "uint128",
          "name": "",
          "type": "uint128"
        }
      ],
      "stateMutability": "view",
      "type": "function"
    },
    {
      "inputs": [],
      "name": "maxLiquidityPerTick",
      "outputs": [
        {
          "internalType": "uint128",
          "name": "",
          "type": "uint128"
        }
      ],
      "stateMutability": "view",
      "type": "function"
    },
    {
      "inputs": [
        {
          "internalType": "address",
          "name": "recipient",
          "type": "address"
        },
        {
          "internalType": "int24",
          "name": "tickLower",
          "type": "int24"
        },
        {
          "internalType": "int24",
          "name": "tickUpper",
          "type": "int24"
        },
        {
          "internalType": "uint128",
          "name": "amount",
          "type": "uint128"
        },
        {
          "internalType": "bytes",
          "name": "data",
          "type": "bytes"
        }
      ],
      "name": "mint",
      "outputs": [
        {
          "internalType": "uint256",
          "name": "amount0",
          "type": "uint256"
        },
        {
          "internalType": "uint256",
          "name": "amount1",
          "type": "uint256"
        }
      ],
      "stateMutability": "nonpayable",
      "type": "function"
    },
    {
      "inputs": [
        {
          "internalType": "uint32[]",
          "name": "secondsAgos",
          "type": "uint32[]"
        }
      ],
      "name": "observe",
      "outputs": [
        {
          "internalType": "int56[]",
          "name": "tickCumulatives",
          "type": "int56[]"
        },
        {
          "internalType": "uint160[]",
          "name": "secondsPerLiquidityCumulativeX128s",
          "type": "uint160[]"
        }
      ],
      "stateMutability": "view",
      "type": "function"
    },
    {
      "inputs": [],
      "name": "oracle",
      "outputs": [
        {
          "internalType": "contract IOracleObservation",
          "name": "",
          "type": "address"
        }
      ],
      "stateMutability": "view",
      "type": "function"
    },
    {
      "inputs": [],
      "name": "original",
      "outputs": [
        {
          "internalType": "address",
          "name": "",
          "type": "address"
        }
      ],
      "stateMutability": "view",
      "type": "function"
    },
    {
      "inputs": [],
      "name": "owner",
      "outputs": [
        {
          "internalType": "address",
          "name": "",
          "type": "address"
        }
      ],
      "stateMutability": "view",
      "type": "function"
    },
    {
      "inputs": [],
      "name": "poolHash",
      "outputs": [
        {
          "internalType": "bytes32",
          "name": "",
          "type": "bytes32"
        }
      ],
      "stateMutability": "view",
      "type": "function"
    },
    {
      "inputs": [
        {
          "internalType": "bytes32",
          "name": "",
          "type": "bytes32"
        }
      ],
      "name": "positions",
      "outputs": [
        {
          "internalType": "uint128",
          "name": "liquidity",
          "type": "uint128"
        },
        {
          "internalType": "uint256",
          "name": "feeGrowthInside0LastX128",
          "type": "uint256"
        },
        {
          "internalType": "uint256",
          "name": "feeGrowthInside1LastX128",
          "type": "uint256"
        },
        {
          "internalType": "uint128",
          "name": "tokensOwed0",
          "type": "uint128"
        },
        {
          "internalType": "uint128",
          "name": "tokensOwed1",
          "type": "uint128"
        }
      ],
      "stateMutability": "view",
      "type": "function"
    },
    {
      "inputs": [],
      "name": "protocolFees",
      "outputs": [
        {
          "internalType": "uint128",
          "name": "token0",
          "type": "uint128"
        },
        {
          "internalType": "uint128",
          "name": "token1",
          "type": "uint128"
        }
      ],
      "stateMutability": "view",
      "type": "function"
    },
    {
      "inputs": [],
      "name": "renounceOwnership",
      "outputs": [],
      "stateMutability": "nonpayable",
      "type": "function"
    },
    {
      "inputs": [
        {
          "internalType": "uint8",
          "name": "feeProtocol0",
          "type": "uint8"
        },
        {
          "internalType": "uint8",
          "name": "feeProtocol1",
          "type": "uint8"
        }
      ],
      "name": "setFeeProtocol",
      "outputs": [],
      "stateMutability": "nonpayable",
      "type": "function"
    },
    {
      "inputs": [],
      "name": "slot0",
      "outputs": [
        {
          "internalType": "uint160",
          "name": "sqrtPriceX96",
          "type": "uint160"
        },
        {
          "internalType": "int24",
          "name": "tick",
          "type": "int24"
        },
        {
          "internalType": "uint16",
          "name": "observationIndex",
          "type": "uint16"
        },
        {
          "internalType": "uint16",
          "name": "observationCardinality",
          "type": "uint16"
        },
        {
          "internalType": "uint16",
          "name": "observationCardinalityNext",
          "type": "uint16"
        },
        {
          "internalType": "uint8",
          "name": "feeProtocol",
          "type": "uint8"
        },
        {
          "internalType": "bool",
          "name": "unlocked",
          "type": "bool"
        }
      ],
      "stateMutability": "view",
      "type": "function"
    },
    {
      "inputs": [
        {
          "internalType": "int24",
          "name": "tickLower",
          "type": "int24"
        },
        {
          "internalType": "int24",
          "name": "tickUpper",
          "type": "int24"
        }
      ],
      "name": "snapshotCumulativesInside",
      "outputs": [
        {
          "internalType": "int56",
          "name": "tickCumulativeInside",
          "type": "int56"
        },
        {
          "internalType": "uint160",
          "name": "secondsPerLiquidityInsideX128",
          "type": "uint160"
        },
        {
          "internalType": "uint32",
          "name": "secondsInside",
          "type": "uint32"
        }
      ],
      "stateMutability": "view",
      "type": "function"
    },
    {
      "inputs": [
        {
          "internalType": "address",
          "name": "recipient",
          "type": "address"
        },
        {
          "internalType": "bool",
          "name": "zeroForOne",
          "type": "bool"
        },
        {
          "internalType": "int256",
          "name": "amountSpecified",
          "type": "int256"
        },
        {
          "internalType": "uint160",
          "name": "sqrtPriceLimitX96",
          "type": "uint160"
        },
        {
          "internalType": "bytes",
          "name": "data",
          "type": "bytes"
        }
      ],
      "name": "swap",
      "outputs": [
        {
          "internalType": "int256",
          "name": "amount0",
          "type": "int256"
        },
        {
          "internalType": "int256",
          "name": "amount1",
          "type": "int256"
        }
      ],
      "stateMutability": "nonpayable",
      "type": "function"
    },
    {
      "inputs": [
        {
          "internalType": "int16",
          "name": "",
          "type": "int16"
        }
      ],
      "name": "tickBitmap",
      "outputs": [
        {
          "internalType": "uint256",
          "name": "",
          "type": "uint256"
        }
      ],
      "stateMutability": "view",
      "type": "function"
    },
    {
      "inputs": [],
      "name": "tickSpacing",
      "outputs": [
        {
          "internalType": "int24",
          "name": "",
          "type": "int24"
        }
      ],
      "stateMutability": "view",
      "type": "function"
    },
    {
      "inputs": [
        {
          "internalType": "int24",
          "name": "",
          "type": "int24"
        }
      ],
      "name": "ticks",
      "outputs": [
        {
          "internalType": "uint128",
          "name": "liquidityGross",
          "type": "uint128"
        },
        {
          "internalType": "int128",
          "name": "liquidityNet",
          "type": "int128"
        },
        {
          "internalType": "uint256",
          "name": "feeGrowthOutside0X128",
          "type": "uint256"
        },
        {
          "internalType": "uint256",
          "name": "feeGrowthOutside1X128",
          "type": "uint256"
        },
        {
          "internalType": "int56",
          "name": "tickCumulativeOutside",
          "type": "int56"
        },
        {
          "internalType": "uint160",
          "name": "secondsPerLiquidityOutsideX128",
          "type": "uint160"
        },
        {
          "internalType": "uint32",
          "name": "secondsOutside",
          "type": "uint32"
        },
        {
          "internalType": "bool",
          "name": "initialized",
          "type": "bool"
        }
      ],
      "stateMutability": "view",
      "type": "function"
    },
    {
      "inputs": [],
      "name": "token0",
      "outputs": [
        {
          "internalType": "contract IERC20",
          "name": "",
          "type": "address"
        }
      ],
      "stateMutability": "view",
      "type": "function"
    },
    {
      "inputs": [],
      "name": "token1",
      "outputs": [
        {
          "internalType": "contract IERC20",
          "name": "",
          "type": "address"
        }
      ],
      "stateMutability": "view",
      "type": "function"
    },
    {
      "inputs": [
        {
          "internalType": "address",
          "name": "newOwner",
          "type": "address"
        }
      ],
      "name": "transferOwnership",
      "outputs": [],
      "stateMutability": "nonpayable",
      "type": "function"
    }
  ],
  "bytecode": "0x60a060405234801561001057600080fd5b5030608052608051615b896200003860003960008181610390015261269c0152615b896000f3fe608060405234801561001057600080fd5b50600436106101da5760003560e01c80637dc0d1d011610104578063a38807f2116100a2578063f2fde38b11610071578063f2fde38b146105d8578063f3058399146105eb578063f30dba93146105f4578063f34e2792146106c857600080fd5b8063a38807f21461053a578063d0c93a7c1461057b578063d21220a7146105a2578063ddca3f43146105b557600080fd5b8063883bdbfd116100de578063883bdbfd146104cd5780638da5cb5b146104ee5780639b503daf1461051e578063a34123a71461052757600080fd5b80637dc0d1d0146104945780638206a4d1146104a757806385b66729146104ba57600080fd5b8063461413191161017c578063514ea4bf1161014b578063514ea4bf146103d85780635339c2961461045957806370cf754a14610479578063715018a61461048c57600080fd5b8063461413191461037457806346c715fa1461038b578063490e6cbc146103b25780634f1eb3d8146103c557600080fd5b80631ad8b03b116101b85780631ad8b03b1461026957806332148f67146102a75780633850c7bd146102bc5780633c8a7d8d1461036157600080fd5b80630dfe1681146101df578063128acb08146102165780631a6865021461023e575b600080fd5b6000546101f990600160301b90046001600160a01b031681565b6040516001600160a01b0390911681526020015b60405180910390f35b610229610224366004614e08565b6106db565b6040805192835260208301919091520161020d565b600854610251906001600160801b031681565b6040516001600160801b03909116815260200161020d565b600754610287906001600160801b0380821691600160801b90041682565b604080516001600160801b0393841681529290911660208301520161020d565b6102ba6102b5366004614e9d565b611275565b005b600454610310906001600160a01b03811690600160a01b810460020b9061ffff600160b81b8204811691600160c81b8104821691600160d81b8204169060ff600160e81b8204811691600160f01b90041687565b604080516001600160a01b03909816885260029690960b602088015261ffff94851695870195909552918316606086015291909116608084015260ff1660a0830152151560c082015260e00161020d565b61022961036f366004614ee3565b6113c9565b61037d60065481565b60405190815260200161020d565b6101f97f000000000000000000000000000000000000000000000000000000000000000081565b6102ba6103c0366004614f31565b61161d565b6102876103d3366004614f9b565b611a5c565b6104236103e6366004615002565b600b6020526000908152604090208054600182015460028301546003909301546001600160801b0392831693919281811691600160801b90041685565b604080516001600160801b039687168152602081019590955284019290925283166060830152909116608082015260a00161020d565b61037d61046736600461501b565b600a6020526000908152604090205481565b600254610251906001600160801b031681565b6102ba611c9b565b600c546101f9906001600160a01b031681565b6102ba6104b536600461504f565b611caf565b6102876104c8366004615082565b611de0565b6104e06104db3660046150c7565b612041565b60405161020d92919061513c565b7f9016d09d72d40fdae2fd8ceac6b6234c7706214fd39c1cd1e609a0528c199300546001600160a01b03166101f9565b61037d60035481565b6102296105353660046151c3565b612107565b61054d6105483660046151ef565b6122a2565b6040805160069490940b84526001600160a01b03909216602084015263ffffffff169082015260600161020d565b60005461058f906301000000900460020b81565b60405160029190910b815260200161020d565b6001546101f9906001600160a01b031681565b6000546105c49062ffffff1681565b60405162ffffff909116815260200161020d565b6102ba6105e6366004615219565b6124cb565b61037d60055481565b61066c610602366004615236565b60096020526000908152604090208054600182015460028301546003909301546001600160801b03831693600160801b909304600f0b9290600681900b90600160381b81046001600160a01b031690600160d81b810463ffffffff1690600160f81b900460ff1688565b604080516001600160801b039099168952600f9790970b602089015295870194909452606086019290925260060b60808501526001600160a01b031660a084015263ffffffff1660c0830152151560e08201526101000161020d565b6102ba6106d6366004615251565b612509565b6000806106e661269a565b856000036107205760405162461bcd60e51b8152602060048201526002602482015261415360f01b60448201526064015b60405180910390fd5b6040805160e0810182526004546001600160a01b0381168252600160a01b810460020b602083015261ffff600160b81b8204811693830193909352600160c81b810483166060830152600160d81b8104909216608082015260ff600160e81b8304811660a0830152600160f01b909204909116151560c08201526107a58189886126e3565b6004805460ff60f01b191690556040805160c08101909152600090808a6107d75760048460a0015160ff16901c6107e8565b60108460a001516107e89190615303565b60ff1681526008546001600160801b031660208201526040014263ffffffff168152602001600060060b815260200160006001600160a01b031681526020016000151581525090506000808913905060006040518060e00160405280856020015160020b815260200160006001600160801b0316815260200184602001516001600160801b0316815260200185600001516001600160a01b031681526020018b8152602001600081526020018c6108a1576006546108a5565b6005545b90526040805160e081018252600080825260208201819052918101829052606081018290526080810182905260a0810182905260c08101919091529091505b60808201511580159061090d5750896001600160a01b031682606001516001600160a01b031614155b15610d225760608201516001600160a01b03166040820152815160005461094191600a916301000000900460020b8f61279a565b1515825260020b60208201819052620d89e719131561096957620d89e719602082015261099a565b610976620d89e71961533b565b816020015160020b131561099a57610991620d89e71961533b565b60020b60208201525b6109a78160200151612935565b6001600160a01b0316606080830191909152820151610a24908d6109e3578b6001600160a01b031683606001516001600160a01b0316116109fd565b8b6001600160a01b031683606001516001600160a01b0316105b610a0b578260600151610a0d565b8b5b6040850151608086015160005462ffffff16612d52565b60c085015260a084015260808301526001600160a01b031660608301528215610a8557610a5a8160c00151826080015101612f7b565b60808301805191909103905260a0810151610a7490612f7b565b60a083018051919091039052610abf565b610a928160a00151612f7b565b6080808401805190920190915260c082015190820151610ab29101612f7b565b60a0830180519190910190525b835160ff1615610b1b576000846000015160ff168260c00151610ae29190615357565b9050808260c001818151610af6919061536b565b905250602083018051829190610b0d90839061537e565b6001600160801b0316905250505b60408201516001600160801b031615610b6357610b4e8160c00151600160801b84604001516001600160801b0316612fac565b8260c001818151610b5f91906153a5565b9052505b80606001516001600160a01b031682606001516001600160a01b031603610cef57805115610cc5578360a00151610c4757600c546003546040808701516020808a01518a840151918a015160608c01519451631856777f60e21b81526001600160a01b0390971696636159ddfc96610be9969095946000949390929091906004016153b8565b6040805180830381865afa158015610c05573d6000803e3d6000fd5b505050506040513d601f19601f82011682018060405250810190610c299190615415565b6001600160a01b0316608086015260060b6060850152600160a08501525b6000610c9382602001518e610c5e57600554610c64565b8460c001515b8f610c73578560c00151610c77565b6006545b608089015160608a015160408b01516009959493929190613093565b90508c15610ca757610ca48161544c565b90505b610cb58360400151826131a6565b6001600160801b03166040840152505b8b610cd4578060200151610ce5565b60018160200151610ce59190615472565b60020b82526108e4565b80604001516001600160a01b031682606001516001600160a01b031614610d1d57610ce5826060015161326c565b6108e4565b846020015160020b826000015160020b14610e5057600c54600354604080880151878201516020808b0151908a015160608c015160808d0151955163f9a1bd4760e01b815260009889986001600160a01b039091169763f9a1bd4797610d95979296909592949093909190600401615497565b60408051808303816000875af1158015610db3573d6000803e3d6000fd5b505050506040513d601f19601f82011682018060405250810190610dd791906154df565b606086015186516004805463ffffffff60b81b1916600160c81b61ffff9586160261ffff60b81b191617600160b81b9590941694909402929092176001600160b81b031916600160a01b62ffffff909316929092026001600160a01b031916919091176001600160a01b0390911617905550610e759050565b6060820151600480546001600160a01b0319166001600160a01b039092169190911790555b81604001516001600160801b031684602001516001600160801b031614610ebb576040820151600880546001600160801b0319166001600160801b039092169190911790555b8b15610f265760c082015160055560208201516001600160801b031615610f2157602082015160078054600090610efc9084906001600160801b031661537e565b92506101000a8154816001600160801b0302191690836001600160801b031602179055505b610f8d565b60c082015160065560208201516001600160801b031615610f8d57602082015160078054601090610f68908490600160801b90046001600160801b031661537e565b92506101000a8154816001600160801b0302191690836001600160801b031602179055505b8215158c151514610fb15760a08201516080830151610fac908d61550e565b610fc6565b6080820151610fc0908c61550e565b8260a001515b90975095508b156110ce576000861215610ff957600154610ff9906001600160a01b03168e610ff48961533b565b6135a6565b6000805461101690600160301b90046001600160a01b03166135f8565b60405163a62b736160e01b8152909150339063a62b736190611042908b908b908f908f90600401615557565b600060405180830381600087803b15801561105c57600080fd5b505af1158015611070573d6000803e3d6000fd5b50506000546110919250600160301b90046001600160a01b031690506135f8565b88820111156110c85760405162461bcd60e51b815260206004820152600360248201526249494160e81b6044820152606401610717565b506111bd565b60008712156110f8576000546110f890600160301b90046001600160a01b03168e610ff48a61533b565b600154600090611110906001600160a01b03166135f8565b60405163a62b736160e01b8152909150339063a62b73619061113c908b908b908f908f90600401615557565b600060405180830381600087803b15801561115657600080fd5b505af115801561116a573d6000803e3d6000fd5b505060015461118492506001600160a01b031690506135f8565b87820111156111bb5760405162461bcd60e51b815260206004820152600360248201526249494160e81b6044820152606401610717565b505b6001600160a01b038d16336001600160a01b03167fc42079f94a6350d7e6235f29174924f928cc2ac818eb64fed8004e115fbcca67898986606001518760400151886000015160405161124795949392919094855260208501939093526001600160a01b039190911660408401526001600160801b0316606083015260020b608082015260a00190565b60405180910390a350506004805460ff60f01b1916600160f01b179055509299919850909650505050505050565b600454600160f01b900460ff1661129e5760405162461bcd60e51b815260040161071790615581565b6004805460ff60f01b191690556112b361269a565b60048054600c546003546040516361f465af60e11b815293840152600160d81b90910461ffff908116602484018190529084166044840152916000916001600160a01b03169063c3e8cb5e906064016020604051808303816000875af1158015611321573d6000803e3d6000fd5b505050506040513d601f19601f82011682018060405250810190611345919061559e565b6004805461ffff808416600160d81b810261ffff60d81b19909316929092179092559192508316146113b1576040805161ffff8085168252831660208201527fac49e518f90a358f652e4400164f05a5d8f7e35e7747279bc3a93dbf584e125a91015b60405180910390a15b50506004805460ff60f01b1916600160f01b17905550565b6004546000908190600160f01b900460ff166113f75760405162461bcd60e51b815260040161071790615581565b6004805460ff60f01b191690556001600160801b03851661141757600080fd5b60008061145560405180608001604052808c6001600160a01b031681526020018b60020b81526020018a60020b815260200189600f0b815250613663565b90955093508492508391505081156114f957600054600160301b90046001600160a01b03166323b872dd336040516001600160e01b031960e084901b1681526001600160a01b039091166004820152306024820152604481018790526064016020604051808303816000875af11580156114d3573d6000803e3d6000fd5b505050506040513d601f19601f820116820180604052508101906114f791906155bb565b505b821561158a576001546001600160a01b03166323b872dd336040516001600160e01b031960e084901b1681526001600160a01b039091166004820152306024820152604481018690526064016020604051808303816000875af1158015611564573d6000803e3d6000fd5b505050506040513d601f19601f8201168201806040525081019061158891906155bb565b505b8760020b8960020b8b6001600160a01b03167f7a53080ba414158be7ec69b987b5fb7d07dee101fe85488f0853ae16239d0bde6115c43390565b604080516001600160a01b0390921682526001600160801b038d16602083015281018990526060810188905260800160405180910390a450506004805460ff60f01b1916600160f01b1790559097909650945050505050565b600454600160f01b900460ff166116465760405162461bcd60e51b815260040161071790615581565b6004805460ff60f01b1916905561165b61269a565b6008546001600160801b0316806116985760405162461bcd60e51b81526020600482015260016024820152601360fa1b6044820152606401610717565b600080546116b090879062ffffff16620f4240613903565b60008054919250906116cc90879062ffffff16620f4240613903565b905060006116ee600060069054906101000a90046001600160a01b03166135f8565b600154909150600090611709906001600160a01b03166135f8565b9050881561172f5760005461172f90600160301b90046001600160a01b03168b8b6135a6565b871561174c5760015461174c906001600160a01b03168b8a6135a6565b604051638746d5ef60e01b81523390638746d5ef9061177590879087908c908c90600401615557565b600060405180830381600087803b15801561178f57600080fd5b505af11580156117a3573d6000803e3d6000fd5b5050505060006117c7600060069054906101000a90046001600160a01b03166135f8565b6001549091506000906117e2906001600160a01b03166135f8565b905060008083888701111561181e5760405162461bcd60e51b8152602060048201526002602482015261046360f41b6044820152606401610717565b8287860111156118555760405162461bcd60e51b8152602060048201526002602482015261463160f01b6044820152606401610717565b50508382038382038386146119305760045460009061188090601090600160e81b900460ff16615303565b9050600060ff82161561189f5761189a60ff831685615357565b6118a2565b60005b90506001600160801b038116156118f657600780548291906000906118d19084906001600160801b031661537e565b92506101000a8154816001600160801b0302191690836001600160801b031602179055505b611917611903828661536b565b600160801b8d6001600160801b0316612fac565b6005600082825461192891906153a5565b909155505050505b80156119e45760048054600160e81b9004901c600f16600081156119605761195b60ff831684615357565b611963565b60005b90506001600160801b038116156119be5760078054829190601090611999908490600160801b90046001600160801b031661537e565b92506101000a8154816001600160801b0302191690836001600160801b031602179055505b6119cb611903828561536b565b600660008282546119dc91906153a5565b909155505050505b604080518e8152602081018e9052908101839052606081018290526001600160a01b038f169033907fbdbdb71d7860376ba52b25a5028beea23581364a40522f6bcfb86bb1f2dca6339060800160405180910390a350506004805460ff60f01b1916600160f01b179055505050505050505050505050565b6004546000908190600160f01b900460ff16611a8a5760405162461bcd60e51b815260040161071790615581565b6004805460ff60f01b191690556000611aa6600b338989613960565b60038101549091506001600160801b0390811690861611611ac75784611ad6565b60038101546001600160801b03165b60038201549093506001600160801b03600160801b909104811690851611611afe5783611b14565b6003810154600160801b90046001600160801b03165b91506001600160801b03831615611b9257600381018054849190600090611b459084906001600160801b03166155d8565b92506101000a8154816001600160801b0302191690836001600160801b03160217905550611b92600060069054906101000a90046001600160a01b031689856001600160801b03166135a6565b6001600160801b03821615611c1457818160030160108282829054906101000a90046001600160801b0316611bc791906155d8565b92506101000a8154816001600160801b0302191690836001600160801b03160217905550611c14600160009054906101000a90046001600160a01b031689846001600160801b03166135a6565b8560020b8760020b611c233390565b604080516001600160a01b038d811682526001600160801b038981166020840152881682840152915192909116917f70935338e69775456a85ddef226c395fb668b63fa0115f5f20610b388e6ca9c09181900360600190a4506004805460ff60f01b1916600160f01b17905590969095509350505050565b611ca36139bd565b611cad6000613a18565b565b600454600160f01b900460ff16611cd85760405162461bcd60e51b815260040161071790615581565b6004805460ff60f01b19169055611ced6139bd565b60ff82161580611d10575060048260ff1610158015611d105750600a8260ff1611155b8015611d3a575060ff81161580611d3a575060048160ff1610158015611d3a5750600a8160ff1611155b611d4357600080fd5b60048054600160e81b900460ff1690611d639083901b610ff016846155f8565b6004805460ff92909216600160e81b0260ff60e81b199092169190911790557f973d8d92bb299f4af6ce49b52a8adb85ae46b9f214c4c4fc06ac77401237b133611dae601083615303565b6040805160ff9283168152600f600486901c1660208201528683169181019190915290841660608201526080016113a8565b6004546000908190600160f01b900460ff16611e0e5760405162461bcd60e51b815260040161071790615581565b6004805460ff60f01b19169055611e236139bd565b6007546001600160801b0390811690851611611e3f5783611e4c565b6007546001600160801b03165b6007549092506001600160801b03600160801b909104811690841611611e725782611e86565b600754600160801b90046001600160801b03165b90506001600160801b03821615611f26576007546001600160801b0390811690831603611ebb5781611eb781615611565b9250505b60078054839190600090611ed99084906001600160801b03166155d8565b92506101000a8154816001600160801b0302191690836001600160801b03160217905550611f26600060069054906101000a90046001600160a01b031686846001600160801b03166135a6565b6001600160801b03811615611fd2576007546001600160801b03600160801b909104811690821603611f605780611f5c81615611565b9150505b60078054829190601090611f85908490600160801b90046001600160801b03166155d8565b92506101000a8154816001600160801b0302191690836001600160801b03160217905550611fd2600160009054906101000a90046001600160a01b031686836001600160801b03166135a6565b604080516001600160801b0384811682528316602082015281516001600160a01b0388169233927f596b573906218d3411850b26a6b437d6c4522fdb43d2d2386263f86d50b8b151929081900390910190a36004805460ff60f01b1916600160f01b1790559094909350915050565b60608061204c61269a565b600c5460035460048054600854604051630e5b448160e21b81526001600160a01b039095169463396d1204946120b694909342938c938c93600160a01b840460020b9361ffff600160b81b82048116946001600160801b031693600160c81b909204169101615634565b600060405180830381865afa1580156120d3573d6000803e3d6000fd5b505050506040513d6000823e601f3d908101601f191682016040526120fb91908101906157ad565b915091505b9250929050565b6004546000908190600160f01b900460ff166121355760405162461bcd60e51b815260040161071790615581565b6004805460ff60f01b1916905560408051608081019091526000908190819061218e9080336001600160a01b031681526020018a60020b81526020018960020b8152602001886121849061544c565b600f0b9052613663565b9250925092508161219e9061533b565b94506121a98161533b565b935060008511806121ba5750600084115b1561221c5760038301546121d89086906001600160801b031661537e565b60038401546121f8908690600160801b90046001600160801b031661537e565b6001600160801b039182169116600160801b026001600160801b0319161760038401555b8660020b8860020b61222b3390565b604080516001600160801b038b168152602081018a90529081018890526001600160a01b0391909116907f0c396cd989a39f4459b5fa1aed6a9a8dcdbc45908acfd67e028cd568da98982c9060600160405180910390a450506004805460ff60f01b1916600160f01b179055509094909350915050565b60008060006122af61269a565b6122b98585613a89565b60008060006122c788613b4a565b92509250925060008060006122db8a613b4a565b6040805160e0810182526004546001600160a01b0381168252600160a01b8104600290810b6020840181905261ffff600160b81b8404811695850195909552600160c81b830485166060850152600160d81b8304909416608084015260ff600160e81b8304811660a0850152600160f01b909204909116151560c083015294975092955090935090918d900b131561239d576123778488615870565b612381848861589d565b61238b84886158bd565b995099509950505050505050506124c4565b8a60020b816020015160020b12156124a657600c54600354602083015160408085015160085460608701519251631856777f60e21b8152429660009687966001600160a01b0390921695636159ddfc9561240d9592948b948a9490936001600160801b03909116916004016153b8565b6040805180830381865afa158015612429573d6000803e3d6000fd5b505050506040513d601f19601f8201168201806040525081019061244d9190615415565b90925090508661245d8b84615870565b6124679190615870565b866124728b8461589d565b61247c919061589d565b866124878b876158bd565b61249191906158bd565b9c509c509c50505050505050505050506124c4565b6124b08785615870565b6124ba878561589d565b61238b87856158bd565b9250925092565b6124d36139bd565b6001600160a01b0381166124fd57604051631e4fbdf760e01b815260006004820152602401610717565b61250681613a18565b50565b7ff0c57e16840df040f15088dc2f81fe391c3923bec73e23a9662efc9c229c6a008054600160401b810460ff16159067ffffffffffffffff1660008115801561254f5750825b905060008267ffffffffffffffff16600114801561256c5750303b155b90508115801561257a575080155b156125985760405163f92ee8a960e01b815260040160405180910390fd5b845467ffffffffffffffff1916600117855583156125c257845460ff60401b1916600160401b1785555b6125ca613bed565b6125d387613bf5565b600c80546001600160a01b0319166001600160a01b0388161790556125fa8a8d8d8c613bfd565b6000805462ffffff8a811663010000000265ffffffffffff19909216908c161717905561262688613e92565b600280546001600160801b0319166001600160801b0392909216919091179055831561268c57845460ff60401b19168555604051600181527fc7f505b2f371ae2175ee4913f4499e1f2633a7b5936321eed1cdaeb6115181d29060200160405180910390a15b505050505050505050505050565b7f00000000000000000000000000000000000000000000000000000000000000006001600160a01b03163014611cad57604051636e0c378360e01b815260040160405180910390fd5b8161272f5782600001516001600160a01b0316816001600160a01b031611158061272a575073fffd8963efd1fc6a506488495d951d5263988d266001600160a01b03821610155b612762565b82600001516001600160a01b0316816001600160a01b031610158061276257506401000276a36001600160a01b03821611155b156127955760405162461bcd60e51b815260206004820152600360248201526214d41360ea1b6044820152606401610717565b505050565b600080806127a885876158da565b905060008660020b1280156127c857506127c28587615914565b60020b15155b156127db57806127d781615936565b9150505b6000806000861561281d575050600282900b600881901d906101009007600160ff821681901b9061280c908261536b565b61281691906153a5565b9250612857565b61283d61282b85600161594f565b60020b600881901d9161010090910790565b9092509050612853600160ff831681901b61536b565b1992505b600182900b600090815260208b9052604081205484168015801597509091906128e55760008961288f5761288a83613f19565b612898565b61289883614064565b9050896128c6576128a98482615974565b6128b69060ff168861594f565b6128c190600161594f565b6128dd565b6128d08482615974565b6128dd9060ff168861594f565b915050612922565b88612912576128f58360ff615974565b6129029060ff168761594f565b61290d90600161594f565b61291f565b61291f60ff841687615472565b90505b9098029a94995093975050505050505050565b60008060008360020b1261294c578260020b612959565b8260020b6129599061533b565b9050612968620d89e71961533b565b81111561299b5760405162461bcd60e51b81526020600482015260016024820152601560fa1b6044820152606401610717565b6000816001166000036129b257600160801b6129c4565b6ffffcb933bd6fad37aa2d162d1a5940015b70ffffffffffffffffffffffffffffffffff1690506002821615612a035760806129fe826ffff97272373d413259a46990580e213a61598d565b901c90505b6004821615612a2d576080612a28826ffff2e50f5f656932ef12357cf3c7fdcc61598d565b901c90505b6008821615612a57576080612a52826fffe5caca7e10e4e61c3624eaa0941cd061598d565b901c90505b6010821615612a81576080612a7c826fffcb9843d60f6159c9db58835c92664461598d565b901c90505b6020821615612aab576080612aa6826fff973b41fa98c081472e6896dfb254c061598d565b901c90505b6040821615612ad5576080612ad0826fff2ea16466c96a3843ec78b326b5286161598d565b901c90505b6080821615612aff576080612afa826ffe5dee046a99a2a811c461f1969c305361598d565b901c90505b610100821615612b2a576080612b25826ffcbe86c7900a88aedcffc83b479aa3a461598d565b901c90505b610200821615612b55576080612b50826ff987a7253ac413176f2b074cf7815e5461598d565b901c90505b610400821615612b80576080612b7b826ff3392b0822b70005940c7a398e4b70f361598d565b901c90505b610800821615612bab576080612ba6826fe7159475a2c29b7443b29c7fa6e889d961598d565b901c90505b611000821615612bd6576080612bd1826fd097f3bdfd2022b8845ad8f792aa582561598d565b901c90505b612000821615612c01576080612bfc826fa9f746462d870fdf8a65dc1f90e061e561598d565b901c90505b614000821615612c2c576080612c27826f70d869a156d2a1b890bb3df62baf32f761598d565b901c90505b618000821615612c57576080612c52826f31be135f97d08fd981231505542fcfa661598d565b901c90505b62010000821615612c83576080612c7e826f09aa508b5b7a84e1c677de54f3e99bc961598d565b901c90505b62020000821615612cae576080612ca9826e5d6af8dedb81196699c329225ee60461598d565b901c90505b62040000821615612cd8576080612cd3826d2216e584f5fa1ea926041bedfe9861598d565b901c90505b62080000821615612d00576080612cfb826b048a170391f7dc42444e8fa261598d565b901c90505b60008460020b1315612d1b57612d1881600019615357565b90505b612d2a640100000000826159a4565b15612d36576001612d39565b60005b612d4a9060ff16602083901c6153a5565b949350505050565b60008080806001600160a01b03808916908a161015818712158281612d7f57612d7a8961533b565b612d81565b885b9050600082612d905781612daf565b612daf82612da18b620f42406159b8565b62ffffff16620f4240612fac565b90508215612dff5783612dce57612dc98d8d8d60016141a2565b612ddb565b612ddb8c8e8d6001614220565b965086811015612df657612df18d8c83876142e7565b612df8565b8b5b9750612e4e565b83612e1657612e118d8d8d6000614220565b612e23565b612e238c8e8d60006141a2565b955085811015612e4957612e418d8c612e3b8d61533b565b87614332565b975087612e4b565b8b5b97505b6001600160a01b038c8116908916148415612eb157808015612e6d5750835b612e8357612e7e898f8e6001614220565b612e85565b875b9750808015612e92575083155b612ea857612ea3898f8e60006141a2565b612eaa565b865b9650612efb565b808015612ebb5750835b612ed157612ecc8e8a8e60016141a2565b612ed3565b875b9750808015612ee0575083155b612ef657612ef18e8a8e6000614220565b612ef8565b865b96505b83158015612f0857508287115b15612f11578296505b838015612f3057508c6001600160a01b0316896001600160a01b031614155b15612f4657612f3f888c61536b565b9550612f6a565b612f678862ffffff8c16612f5d8d620f42406159b8565b62ffffff16613903565b95505b505050505095509550955095915050565b60006001600160ff1b03821115612fa85760405163123baf0360e11b815260048101839052602401610717565b5090565b600081600003612fcf576040516329e460df60e21b815260040160405180910390fd5b60008060001985870985870292508281108382030391505080600003612ffa5750829004905061308c565b80841161301a57604051638ef98a4760e01b815260040160405180910390fd5b60008486880980840393811190920391905060008561303b811960016153a5565b16958690049560026003880281188089028203028089028203028089028203028089028203028089028203028089029091030260008290038290046001019490940294049390931791909102925050505b9392505050565b600286900b600090815260208890526040812060018101546130b5908861536b565b600182015560028101546130c9908761536b565b600282015560038101546130ed90600160381b90046001600160a01b03168661589d565b6003820180546001600160a01b0392909216600160381b02670100000000000000600160d81b0319909216919091179081905561312d9060060b85615870565b60038201805466ffffffffffffff191666ffffffffffffff92909216919091179081905561316890600160d81b900463ffffffff16846158bd565b60038201805463ffffffff92909216600160d81b0263ffffffff60d81b1990921691909117905554600160801b9004600f0b98975050505050505050565b60008082600f0b1215613213576001600160801b0383166131c68361544c565b6131d090856155d8565b9150816001600160801b03161061320e5760405162461bcd60e51b81526020600482015260026024820152614c5360f01b6044820152606401610717565b613266565b6001600160801b038316613227838561537e565b9150816001600160801b031610156132665760405162461bcd60e51b81526020600482015260026024820152614c4160f01b6044820152606401610717565b92915050565b60006401000276a36001600160a01b038316108015906132a8575073fffd8963efd1fc6a506488495d951d5263988d266001600160a01b038316105b6132d85760405162461bcd60e51b81526020600482015260016024820152602960f91b6044820152606401610717565b640100000000600160c01b03602083901b166001600160801b03811160071b81811c67ffffffffffffffff811160061b90811c63ffffffff811160051b90811c61ffff811160041b90811c60ff8111600390811b91821c600f811160021b90811c918211600190811b92831c9790881196179094179092171790911717176080811061337357613369607f8261536b565b83901c9150613384565b61337e81607f61536b565b83901b91505b6000604061339360808461550e565b901b9050828302607f1c92508260801c80603f1b8217915083811c935050828302607f1c92508260801c80603e1b8217915083811c935050828302607f1c92508260801c80603d1b8217915083811c935050828302607f1c92508260801c80603c1b8217915083811c935050828302607f1c92508260801c80603b1b8217915083811c935050828302607f1c92508260801c80603a1b8217915083811c935050828302607f1c92508260801c8060391b8217915083811c935050828302607f1c92508260801c8060381b8217915083811c935050828302607f1c92508260801c8060371b8217915083811c935050828302607f1c92508260801c8060361b8217915083811c935050828302607f1c92508260801c8060351b8217915083811c935050828302607f1c92508260801c8060341b8217915083811c935050828302607f1c92508260801c8060331b8217915083811c935050828302607f1c92508260801c8060321b8217915050600081693627a301d71055774c8561351691906159d4565b9050600060806135366f028f6481ab7f045a5af012a19d003aaa8461550e565b901d905060006080613558846fdb2df09e81959a81455e260799a0632f615a04565b901d90508060020b8260020b1461359757886001600160a01b031661357c82612935565b6001600160a01b031611156135915781613599565b80613599565b815b9998505050505050505050565b604080516001600160a01b038416602482015260448082018490528251808303909101815260649091019091526020810180516001600160e01b031663a9059cbb60e01b17905261279590849061437d565b6040516370a0823160e01b81523060048201526000906001600160a01b038316906370a0823190602401602060405180830381865afa15801561363f573d6000803e3d6000fd5b505050506040513d601f19601f820116820180604052508101906132669190615a2c565b600080600061367061269a565b61368284602001518560400151613a89565b6040805160e0810182526004546001600160a01b0381168252600160a01b810460020b602080840182905261ffff600160b81b8404811685870152600160c81b84048116606080870191909152600160d81b8504909116608086015260ff600160e81b8504811660a0870152600160f01b909404909316151560c085015288519089015194890151928901519394613720949193909290919061442b565b93508460600151600f0b6000146138fb57846020015160020b816020015160020b12156137755761376e6137578660200151612935565b6137648760400151612935565b8760600151614646565b92506138fb565b846040015160020b816020015160020b12156138d157600854600c54600354604084810151602086015160608701516080880151935163f9a1bd4760e01b81526001600160801b03909716966001600160a01b039096169563f9a1bd47956137e995909493429390928a9290600401615497565b60408051808303816000875af1158015613807573d6000803e3d6000fd5b505050506040513d601f19601f8201168201806040525081019061382b91906154df565b6004805463ffffffff60b81b1916600160c81b61ffff9384160261ffff60b81b191617600160b81b93909216929092021790558151604087015161387d919061387390612935565b8860600151614646565b935061389b61388f8760200151612935565b8351606089015161468d565b92506138ab8187606001516131a6565b600880546001600160801b0319166001600160801b0392909216919091179055506138fb565b6138f86138e18660200151612935565b6138ee8760400151612935565b876060015161468d565b91505b509193909250565b6000613910848484612fac565b905060008280613922576139226152ed565b848609111561308c57600019811061394d57604051638ef98a4760e01b815260040160405180910390fd5b8061395781615a45565b95945050505050565b6040805160609490941b6bffffffffffffffffffffffff191660208086019190915260e893841b60348601529190921b60378401528151601a818503018152603a9093018252825192810192909220600090815292909152902090565b336139ef7f9016d09d72d40fdae2fd8ceac6b6234c7706214fd39c1cd1e609a0528c199300546001600160a01b031690565b6001600160a01b031614611cad5760405163118cdaa760e01b8152336004820152602401610717565b7f9016d09d72d40fdae2fd8ceac6b6234c7706214fd39c1cd1e609a0528c19930080546001600160a01b031981166001600160a01b03848116918217845560405192169182907f8be0079c531659141344cd1fd0a4f28419497f9722a3daafe3b4186f6b6457e090600090a3505050565b8060020b8260020b12613ac45760405162461bcd60e51b8152602060048201526003602482015262544c5560e81b6044820152606401610717565b620d89e7198260020b1215613b015760405162461bcd60e51b8152602060048201526003602482015262544c4d60e81b6044820152606401610717565b613b0e620d89e71961533b565b8160020b1315613b465760405162461bcd60e51b815260206004820152600360248201526254554d60e81b6044820152606401610717565b5050565b600281900b6000908152600960205260408120600381015482918291600160f81b900460ff16613bbc5760405162461bcd60e51b815260206004820152601e60248201527f53776170506f6f6c3a205469636b206e6f7420696e697469616c697a656400006044820152606401610717565b60030154600681900b95600160381b82046001600160a01b03169550600160d81b90910463ffffffff169350915050565b611cad6146c1565b6124d36146c1565b613c056146c1565b6004546001600160a01b0316158015613c2f5750816001600160a01b0316836001600160a01b0316105b613c605760405162461bcd60e51b8152602060048201526002602482015261414960f01b6044820152606401610717565b600180546001600160a01b0319166001600160a01b0384811691909117909155600080546601000000000000600160d01b031916600160301b928616830217908190556040516bffffffffffffffffffffffff1992909104606090811b8316602083015284901b90911660348201526001600160e81b031960e883901b166048820152604b0160408051601f1981840301815291905280516020909101206003556000613d0c8561326c565b600c5460035491925060009182916001600160a01b03169063cdb4d84490426040516001600160e01b031960e085901b168152600481019290925263ffffffff16602482015260440160408051808303816000875af1158015613d73573d6000803e3d6000fd5b505050506040513d601f19601f82011682018060405250810190613d9791906154df565b6040805160e0810182526001600160a01b038b16808252600288900b6020808401829052600084860181905261ffff888116606087018190529088166080870181905260a0870192909252600160c09096019590955260048054600160f01b6001600160b81b03199091168617600160a01b62ffffff8f16021765ffffffffffff60b81b1916600160c81b90970261ffff60d81b191696909617600160d81b9092029190911761ffff60e81b1916949094179093558351918252918101919091529294509092507f98636036cb66a9c19a37435efc1e90142190214e8abeb821bdba3f2990dd4c95910160405180910390a150505050505050565b60008082613ea8600282900b620d89e719615a5e565b613eb29190615a8c565b90506000838460020b620d89e719613ec99061533b565b613ed39190615a5e565b613edd9190615a8c565b9050600084613eec8484615472565b613ef691906158da565b613f01906001615aac565b905061395762ffffff82166001600160801b03615ac8565b6000808211613f785760405162461bcd60e51b815260206004820152602560248201527f4269744d6174683a2056616c7565206d75737420626520677265617465722074604482015264068616e20360dc1b6064820152608401610717565b81600116600003613f9857613f8e6001826155f8565b9050600182901c91505b81600f16600003613fb857613fae6004826155f8565b9050600482901c91505b8160ff16600003613fd857613fce6008826155f8565b9050600882901c91505b8161ffff16600003613ff957613fef6010826155f8565b9050601082901c91505b8163ffffffff1660000361401c576140126020826155f8565b9050602082901c91505b8167ffffffffffffffff16600003614043576140396040826155f8565b9050604082901c91505b816001600160801b031660000361405f576132666080826155f8565b919050565b60008082116140c55760405162461bcd60e51b815260206004820152602760248201527f4269744d6174683a2056616c7565206d757374206265206772656174656964786044820152660207468616e20360cc1b6064820152608401610717565b600160801b82106140e357608091821c916140e090826155f8565b90505b600160401b821061410157604091821c916140fe90826155f8565b90505b640100000000821061412057602091821c9161411d90826155f8565b90505b62010000821061413d57601091821c9161413a90826155f8565b90505b610100821061415957600891821c9161415690826155f8565b90505b6010821061417457600491821c9161417190826155f8565b90505b6004821061418f57600291821c9161418c90826155f8565b90505b6002821061405f576132666001826155f8565b6000836001600160a01b0316856001600160a01b031611156141c2579293925b816141f6576141f16001600160801b0384166141de878761589d565b6001600160a01b0316600160601b612fac565b613957565b6139576001600160801b03841661420d878761589d565b6001600160a01b0316600160601b613903565b6000836001600160a01b0316856001600160a01b03161115614240579293925b600160601b600160e01b03606084901b16600061425d878761589d565b6001600160a01b031690506000876001600160a01b03161161427e57600080fd5b836142b057866001600160a01b03166142a18383896001600160a01b0316612fac565b6142ab9190615357565b6142dc565b6142dc6142c78383896001600160a01b0316613903565b886001600160a01b0316808204910615150190565b979650505050505050565b600080856001600160a01b031611801561430a57506000846001600160801b0316115b61431357600080fd5b81614325576141f1858585600161470a565b61395785858560016147f1565b600080856001600160a01b031611801561435557506000846001600160801b0316115b61435e57600080fd5b81614370576141f185858560006147f1565b613957858585600061470a565b6000826001600160a01b03166000836040516143999190615aee565b60006040518083038185875af1925050503d80600081146143d6576040519150601f19603f3d011682016040523d82523d6000602084013e6143db565b606091505b50915050805160001415801561440257508080602001905181019061440091906155bb565b155b1561279557604051635274afe760e01b81526001600160a01b0384166004820152602401610717565b600061443a600b878787613960565b60055460065491925090600080600f87900b156145a857600042600c5460035460048054600854604051631856777f60e21b815295965060009586956001600160a01b031694636159ddfc946144c29491938a938993600160a01b810460020b9361ffff600160b81b83048116946001600160801b031693600160c81b9093041691016153b8565b6040805180830381865afa1580156144de573d6000803e3d6000fd5b505050506040513d601f19601f820116820180604052508101906145029190615415565b6002549193509150614532906009908e908c908e908c908c9088908a908c906000906001600160801b03166148b3565b600254909550614560906009908d908c908e908c908c9088908a908c906001906001600160801b03166148b3565b935084156145835760005461458390600a908e906301000000900460020b614a46565b83156145a4576000546145a490600a908d906301000000900460020b614a46565b5050505b6000806145ba60098c8c8b8a8a614a99565b90925090506145cb878a8484614b83565b600089600f0b12156146375783156146075760028b810b6000908152600960205260408120818155600181018290559182018190556003909101555b82156146375760028a810b6000908152600960205260408120818155600181018290559182018190556003909101555b50505050505095945050505050565b60008082600f0b1261466c576146676146628585856001614220565b612f7b565b612d4a565b614684614662858561467d8661544c565b6000614220565b612d4a9061533b565b60008082600f0b126146a95761466761466285858560016141a2565b61468461466285856146ba8661544c565b60006141a2565b7ff0c57e16840df040f15088dc2f81fe391c3923bec73e23a9662efc9c229c6a0054600160401b900460ff16611cad57604051631afcd79f60e31b815260040160405180910390fd5b6000811561477c5760006001600160a01b038411156147405761473b84600160601b876001600160801b0316612fac565b614757565b6147576001600160801b038616606086901b615357565b905061477461476f826001600160a01b0389166153a5565b614d6f565b915050612d4a565b60006001600160a01b038411156147aa576147a584600160601b876001600160801b0316613903565b6147c7565b6147c7606085901b6001600160801b038716808204910615150190565b905080866001600160a01b0316116147de57600080fd5b614774816001600160a01b03881661536b565b600082600003614802575083612d4a565b600160601b600160e01b03606085901b1660006148286001600160a01b0388168661598d565b90506000846148405761483b828461536b565b61484a565b61484a82846153a5565b90506001600160a01b0388166148608784615357565b036148865761487c61476f848a6001600160a01b031684613903565b9350505050612d4a565b61487c838761489e6001600160a01b038c1683615357565b6148a891906153a5565b808204910615150190565b60028a900b600090815260208c90526040812080546001600160801b0316826148dc828d6131a6565b9050846001600160801b0316816001600160801b031611156149255760405162461bcd60e51b81526020600482015260026024820152614c4f60f01b6044820152606401610717565b6001600160801b03818116159083168015919091141594506000036149d8578c60020b8e60020b136149c057600183018b9055600283018a905560038301805466ffffffffffffff8a166001600160f81b0319909116600160381b6001600160a01b038d16027fff00000000ffffffffffffffffffffffffffffffffffffffff00000000000000161717600160d81b63ffffffff8a16021790555b6003830180546001600160f81b0316600160f81b1790555b82546001600160801b0319166001600160801b038216178355856149fc578b614a05565b614a058c61544c565b8354614a1b9190600160801b9004600f0b615b1d565b83546001600160801b03918216600160801b0291161790925550909c9b505050505050505050505050565b614a508183615914565b60020b15614a5d57600080fd5b600080614a6d61282b84866158da565b600191820b60009081526020979097526040909620805460ff9097169190911b90951890945550505050565b600285810b60008181526020899052604080822088850b83529082209193849391929184918291908a900b12614ada57505060018201546002830154614afe565b6001840154614ae9908961536b565b9150836002015487614afb919061536b565b90505b6000808b60020b8b60020b1215614b2057505060018301546002840154614b44565b6001850154614b2f908b61536b565b9150846002015489614b41919061536b565b90505b81614b4f858c61536b565b614b59919061536b565b975080614b66848b61536b565b614b70919061536b565b9650505050505050965096945050505050565b83546001600160801b031680151580614ba0575083600f0b600014155b614c125760405162461bcd60e51b815260206004820152603760248201527f506f736974696f6e3a2043616e6e6f7420757064617465206120706f7369746960448201527f6f6e2077697468207a65726f206c69717569646974792e0000000000000000006064820152608401610717565b83600f0b600014614c4e578454614c32906001600160801b0316856131a6565b85546001600160801b0319166001600160801b03919091161785555b6000614c77866001015485614c63919061536b565b836001600160801b0316600160801b612fac565b90506000614ca2876002015485614c8e919061536b565b846001600160801b0316600160801b612fac565b600188018690556002880185905590506001600160801b038216151580614cd257506000816001600160801b0316115b15614d6657600387018054839190600090614cf79084906001600160801b031661537e565b92506101000a8154816001600160801b0302191690836001600160801b03160217905550808760030160108282829054906101000a90046001600160801b0316614d41919061537e565b92506101000a8154816001600160801b0302191690836001600160801b031602179055505b50505050505050565b60006001600160a01b03821115612fa8576040516306dfcc6560e41b815260a0600482015260248101839052604401610717565b6001600160a01b038116811461250657600080fd5b801515811461250657600080fd5b60008083601f840112614dd857600080fd5b50813567ffffffffffffffff811115614df057600080fd5b60208301915083602082850101111561210057600080fd5b60008060008060008060a08789031215614e2157600080fd5b8635614e2c81614da3565b95506020870135614e3c81614db8565b9450604087013593506060870135614e5381614da3565b9250608087013567ffffffffffffffff811115614e6f57600080fd5b614e7b89828a01614dc6565b979a9699509497509295939492505050565b61ffff8116811461250657600080fd5b600060208284031215614eaf57600080fd5b813561308c81614e8d565b8035600281900b811461405f57600080fd5b80356001600160801b038116811461405f57600080fd5b60008060008060008060a08789031215614efc57600080fd5b8635614f0781614da3565b9550614f1560208801614eba565b9450614f2360408801614eba565b9350614e5360608801614ecc565b600080600080600060808688031215614f4957600080fd5b8535614f5481614da3565b94506020860135935060408601359250606086013567ffffffffffffffff811115614f7e57600080fd5b614f8a88828901614dc6565b969995985093965092949392505050565b600080600080600060a08688031215614fb357600080fd5b8535614fbe81614da3565b9450614fcc60208701614eba565b9350614fda60408701614eba565b9250614fe860608701614ecc565b9150614ff660808701614ecc565b90509295509295909350565b60006020828403121561501457600080fd5b5035919050565b60006020828403121561502d57600080fd5b81358060010b811461308c57600080fd5b803560ff8116811461405f57600080fd5b6000806040838503121561506257600080fd5b61506b8361503e565b91506150796020840161503e565b90509250929050565b60008060006060848603121561509757600080fd5b83356150a281614da3565b92506150b060208501614ecc565b91506150be60408501614ecc565b90509250925092565b600080602083850312156150da57600080fd5b823567ffffffffffffffff808211156150f257600080fd5b818501915085601f83011261510657600080fd5b81358181111561511557600080fd5b8660208260051b850101111561512a57600080fd5b60209290920196919550909350505050565b604080825283519082018190526000906020906060840190828701845b8281101561517857815160060b84529284019290840190600101615159565b5050508381038285015284518082528583019183019060005b818110156151b65783516001600160a01b031683529284019291840191600101615191565b5090979650505050505050565b6000806000606084860312156151d857600080fd5b6151e184614eba565b92506150b060208501614eba565b6000806040838503121561520257600080fd5b61520b83614eba565b915061507960208401614eba565b60006020828403121561522b57600080fd5b813561308c81614da3565b60006020828403121561524857600080fd5b61308c82614eba565b600080600080600080600060e0888a03121561526c57600080fd5b873561527781614da3565b9650602088013561528781614da3565b9550604088013561529781614da3565b9450606088013562ffffff811681146152af57600080fd5b93506152bd60808901614eba565b925060a08801356152cd81614da3565b915060c08801356152dd81614da3565b8091505092959891949750929550565b634e487b7160e01b600052601260045260246000fd5b600060ff831680615316576153166152ed565b8060ff84160691505092915050565b634e487b7160e01b600052601160045260246000fd5b6000600160ff1b820161535057615350615325565b5060000390565b600082615366576153666152ed565b500490565b8181038181111561326657613266615325565b6001600160801b0381811683821601908082111561539e5761539e615325565b5092915050565b8082018082111561326657613266615325565b96875263ffffffff958616602088015293909416604086015260029190910b606085015261ffff90811660808501526001600160801b0390921660a08401521660c082015260e00190565b8051600681900b811461405f57600080fd5b6000806040838503121561542857600080fd5b61543183615403565b9150602083015161544181614da3565b809150509250929050565b600081600f0b60016001607f1b0319810361546957615469615325565b60000392915050565b600282810b9082900b03627fffff198112627fffff8213171561326657613266615325565b96875261ffff958616602088015263ffffffff94909416604087015260029290920b60608601526001600160801b03166080850152821660a08401521660c082015260e00190565b600080604083850312156154f257600080fd5b82516154fd81614e8d565b602084015190925061544181614e8d565b818103600083128015838313168383128216171561539e5761539e615325565b81835281816020850137506000828201602090810191909152601f909101601f19169091010190565b84815283602082015260606040820152600061557760608301848661552e565b9695505050505050565b6020808252600390820152624c4f4b60e81b604082015260600190565b6000602082840312156155b057600080fd5b815161308c81614e8d565b6000602082840312156155cd57600080fd5b815161308c81614db8565b6001600160801b0382811682821603908082111561539e5761539e615325565b60ff818116838216019081111561326657613266615325565b60006001600160801b0382168061562a5761562a615325565b6000190192915050565b600060e082018a8352602063ffffffff808c168286015260e06040860152828a8452610100860190508b93506000805b8c81101561568f57853584811680821461567c578384fd5b8452509484019491840191600101615664565b505060028a900b606087015293506156a692505050565b61ffff851660808301526001600160801b03841660a083015261ffff831660c0830152613599565b634e487b7160e01b600052604160045260246000fd5b604051601f8201601f1916810167ffffffffffffffff8111828210171561570d5761570d6156ce565b604052919050565b600067ffffffffffffffff82111561572f5761572f6156ce565b5060051b60200190565b600082601f83011261574a57600080fd5b8151602061575f61575a83615715565b6156e4565b82815260059290921b8401810191818101908684111561577e57600080fd5b8286015b848110156157a257805161579581614da3565b8352918301918301615782565b509695505050505050565b600080604083850312156157c057600080fd5b825167ffffffffffffffff808211156157d857600080fd5b818501915085601f8301126157ec57600080fd5b815160206157fc61575a83615715565b82815260059290921b8401810191818101908984111561581b57600080fd5b948201945b838610156158405761583186615403565b82529482019490820190615820565b9188015191965090935050508082111561585957600080fd5b5061586685828601615739565b9150509250929050565b600682810b9082900b03667fffffffffffff198112667fffffffffffff8213171561326657613266615325565b6001600160a01b0382811682821603908082111561539e5761539e615325565b63ffffffff82811682821603908082111561539e5761539e615325565b60008160020b8360020b806158f1576158f16152ed565b627fffff1982146000198214161561590b5761590b615325565b90059392505050565b60008260020b80615927576159276152ed565b808360020b0791505092915050565b60008160020b627fffff19810361562a5761562a615325565b600281810b9083900b01627fffff8113627fffff198212171561326657613266615325565b60ff828116828216039081111561326657613266615325565b808202811582820484141761326657613266615325565b6000826159b3576159b36152ed565b500690565b62ffffff82811682821603908082111561539e5761539e615325565b80820260008212600160ff1b841416156159f0576159f0615325565b818105831482151761326657613266615325565b8082018281126000831280158216821582161715615a2457615a24615325565b505092915050565b600060208284031215615a3e57600080fd5b5051919050565b600060018201615a5757615a57615325565b5060010190565b600082615a6d57615a6d6152ed565b600160ff1b821460001984141615615a8757615a87615325565b500590565b60008260020b8260020b028060020b915080821461539e5761539e615325565b62ffffff81811683821601908082111561539e5761539e615325565b60006001600160801b0380841680615ae257615ae26152ed565b92169190910492915050565b6000825160005b81811015615b0f5760208186018101518583015201615af5565b506000920191825250919050565b600f81810b9083900b0160016001607f1b0381136f7fffffffffffffffffffffffffffffff19821217156132665761326661532556fea264697066735822122099196664c65b61731a4808fe00db3ce7b10c097f68a684d7fadfc139af7ae87464736f6c63430008150033",
  "linkReferences": {},
  "deployedLinkReferences": {}
}