{
  "_format": "hh-sol-artifact-1",
  "contractName": "Swapper",
  "sourceName": "contracts/utilities/SwapPoolSetup.sol",
  "abi": [
    {
      "inputs": [],
      "name": "InvalidInitialization",
      "type": "error"
    },
    {
      "inputs": [],
      "name": "NotInitializing",
      "type": "error"
    },
    {
      "anonymous": false,
      "inputs": [
        {
          "indexed": false,
          "internalType": "uint64",
          "name": "version",
          "type": "uint64"
        }
      ],
      "name": "Initialized",
      "type": "event"
    },
    {
      "inputs": [
        {
          "internalType": "int256",
          "name": "amount0Delta",
          "type": "int256"
        },
        {
          "internalType": "int256",
          "name": "amount1Delta",
          "type": "int256"
        },
        {
          "internalType": "bytes",
          "name": "data",
          "type": "bytes"
        }
      ],
      "name": "SwapCallback",
      "outputs": [],
      "stateMutability": "nonpayable",
      "type": "function"
    },
    {
      "inputs": [
        {
          "internalType": "bool",
          "name": "zeroForOne",
          "type": "bool"
        },
        {
          "internalType": "int256",
          "name": "amountSpecified",
          "type": "int256"
        },
        {
          "internalType": "uint160",
          "name": "sqrtPriceLimitX96",
          "type": "uint160"
        }
      ],
      "name": "pureSwap",
      "outputs": [
        {
          "components": [
            {
              "internalType": "uint128",
              "name": "liq",
              "type": "uint128"
            },
            {
              "internalType": "uint256",
              "name": "feeGrowthGlobal0X128",
              "type": "uint256"
            },
            {
              "internalType": "uint256",
              "name": "feeGrowthGlobal1X128",
              "type": "uint256"
            },
            {
              "internalType": "uint256",
              "name": "bal0",
              "type": "uint256"
            },
            {
              "internalType": "uint256",
              "name": "bal1",
              "type": "uint256"
            },
            {
              "internalType": "int24",
              "name": "tick",
              "type": "int24"
            }
          ],
          "internalType": "struct Swapper.SwapperStats",
          "name": "bfre",
          "type": "tuple"
        },
        {
          "components": [
            {
              "internalType": "uint128",
              "name": "liq",
              "type": "uint128"
            },
            {
              "internalType": "uint256",
              "name": "feeGrowthGlobal0X128",
              "type": "uint256"
            },
            {
              "internalType": "uint256",
              "name": "feeGrowthGlobal1X128",
              "type": "uint256"
            },
            {
              "internalType": "uint256",
              "name": "bal0",
              "type": "uint256"
            },
            {
              "internalType": "uint256",
              "name": "bal1",
              "type": "uint256"
            },
            {
              "internalType": "int24",
              "name": "tick",
              "type": "int24"
            }
          ],
          "internalType": "struct Swapper.SwapperStats",
          "name": "aftr",
          "type": "tuple"
        }
      ],
      "stateMutability": "nonpayable",
      "type": "function"
    },
    {
      "inputs": [
        {
          "internalType": "contract SwapPool",
          "name": "_pool",
          "type": "address"
        },
        {
          "internalType": "contract IERC20",
          "name": "_token0",
          "type": "address"
        },
        {
          "internalType": "contract IERC20",
          "name": "_token1",
          "type": "address"
        }
      ],
      "name": "setPool",
      "outputs": [],
      "stateMutability": "nonpayable",
      "type": "function"
    },
    {
      "inputs": [
        {
          "internalType": "address",
          "name": "recipient",
          "type": "address"
        },
        {
          "internalType": "bool",
          "name": "zeroForOne",
          "type": "bool"
        },
        {
          "internalType": "int256",
          "name": "amountSpecified",
          "type": "int256"
        },
        {
          "internalType": "uint160",
          "name": "sqrtPriceLimitX96",
          "type": "uint160"
        },
        {
          "internalType": "bytes",
          "name": "data",
          "type": "bytes"
        }
      ],
      "name": "swap",
      "outputs": [
        {
          "components": [
            {
              "internalType": "uint128",
              "name": "liq",
              "type": "uint128"
            },
            {
              "internalType": "uint256",
              "name": "feeGrowthGlobal0X128",
              "type": "uint256"
            },
            {
              "internalType": "uint256",
              "name": "feeGrowthGlobal1X128",
              "type": "uint256"
            },
            {
              "internalType": "uint256",
              "name": "bal0",
              "type": "uint256"
            },
            {
              "internalType": "uint256",
              "name": "bal1",
              "type": "uint256"
            },
            {
              "internalType": "int24",
              "name": "tick",
              "type": "int24"
            }
          ],
          "internalType": "struct Swapper.SwapperStats",
          "name": "bfre",
          "type": "tuple"
        },
        {
          "components": [
            {
              "internalType": "uint128",
              "name": "liq",
              "type": "uint128"
            },
            {
              "internalType": "uint256",
              "name": "feeGrowthGlobal0X128",
              "type": "uint256"
            },
            {
              "internalType": "uint256",
              "name": "feeGrowthGlobal1X128",
              "type": "uint256"
            },
            {
              "internalType": "uint256",
              "name": "bal0",
              "type": "uint256"
            },
            {
              "internalType": "uint256",
              "name": "bal1",
              "type": "uint256"
            },
            {
              "internalType": "int24",
              "name": "tick",
              "type": "int24"
            }
          ],
          "internalType": "struct Swapper.SwapperStats",
          "name": "aftr",
          "type": "tuple"
        }
      ],
      "stateMutability": "nonpayable",
      "type": "function"
    }
  ],
  "bytecode": "0x608060405234801561001057600080fd5b50610aa1806100206000396000f3fe608060405234801561001057600080fd5b506004361061004c5760003560e01c8063128acb08146100515780631e5570351461007b5780639a62b39a1461008e578063a62b7361146100dd575b600080fd5b61006461005f3660046106f5565b6100f0565b6040516100729291906107c0565b60405180910390f35b6100646100893660046107e3565b610152565b6100db61009c366004610825565b600080546001600160a01b039485166001600160a01b031991821617909155600180549385169382169390931790925560028054919093169116179055565b005b6100db6100eb366004610865565b61018e565b6100f8610644565b610100610644565b6101438888888888888080601f01602080910402602001604051908101604052809392919081815260200183838082843760009201919091525061029c92505050565b91509150965096945050505050565b61015a610644565b610162610644565b61018233604080516000808252602082019092528891889188915061029c565b91509150935093915050565b60008413156102125760015460005460405163a9059cbb60e01b81526001600160a01b0391821660048201526024810187905291169063a9059cbb906044016020604051808303816000875af11580156101ec573d6000803e3d6000fd5b505050506040513d601f19601f8201168201806040525081019061021091906108b8565b505b60008313156102965760025460005460405163a9059cbb60e01b81526001600160a01b0391821660048201526024810186905291169063a9059cbb906044016020604051808303816000875af1158015610270573d6000803e3d6000fd5b505050506040513d601f19601f8201168201806040525081019061029491906108b8565b505b50505050565b6102a4610644565b6102ac610644565b6102b4610345565b600054604051630251596160e31b81529193506001600160a01b03169063128acb08906102ed908a908a908a908a908a906004016108d5565b60408051808303816000875af115801561030b573d6000803e3d6000fd5b505050506040513d601f19601f8201168201806040525081019061032f919061094f565b5050610339610345565b90509550959350505050565b61034d610644565b60008060009054906101000a90046001600160a01b03166001600160a01b0316633850c7bd6040518163ffffffff1660e01b815260040160e060405180830381865afa1580156103a1573d6000803e3d6000fd5b505050506040513d601f19601f820116820180604052508101906103c5919061098a565b50505050509150506040518060c0016040528060008054906101000a90046001600160a01b03166001600160a01b0316631a6865026040518163ffffffff1660e01b8152600401602060405180830381865afa158015610429573d6000803e3d6000fd5b505050506040513d601f19601f8201168201806040525081019061044d9190610a29565b6001600160801b0316815260200160008054906101000a90046001600160a01b03166001600160a01b031663f30583996040518163ffffffff1660e01b8152600401602060405180830381865afa1580156104ac573d6000803e3d6000fd5b505050506040513d601f19601f820116820180604052508101906104d09190610a52565b815260200160008054906101000a90046001600160a01b03166001600160a01b031663461413196040518163ffffffff1660e01b8152600401602060405180830381865afa158015610526573d6000803e3d6000fd5b505050506040513d601f19601f8201168201806040525081019061054a9190610a52565b81526001546040516370a0823160e01b81523060048201526020909201916001600160a01b03909116906370a0823190602401602060405180830381865afa15801561059a573d6000803e3d6000fd5b505050506040513d601f19601f820116820180604052508101906105be9190610a52565b81526002546040516370a0823160e01b81523060048201526020909201916001600160a01b03909116906370a0823190602401602060405180830381865afa15801561060e573d6000803e3d6000fd5b505050506040513d601f19601f820116820180604052508101906106329190610a52565b81526020018260020b81525091505090565b6040518060c0016040528060006001600160801b0316815260200160008152602001600081526020016000815260200160008152602001600060020b81525090565b6001600160a01b038116811461069b57600080fd5b50565b801515811461069b57600080fd5b60008083601f8401126106be57600080fd5b50813567ffffffffffffffff8111156106d657600080fd5b6020830191508360208285010111156106ee57600080fd5b9250929050565b60008060008060008060a0878903121561070e57600080fd5b863561071981610686565b955060208701356107298161069e565b945060408701359350606087013561074081610686565b9250608087013567ffffffffffffffff81111561075c57600080fd5b61076889828a016106ac565b979a9699509497509295939492505050565b6001600160801b0381511682526020810151602083015260408101516040830152606081015160608301526080810151608083015260a081015160020b60a08301525050565b61018081016107cf828561077a565b6107dc60c083018461077a565b9392505050565b6000806000606084860312156107f857600080fd5b83356108038161069e565b925060208401359150604084013561081a81610686565b809150509250925092565b60008060006060848603121561083a57600080fd5b833561084581610686565b9250602084013561085581610686565b9150604084013561081a81610686565b6000806000806060858703121561087b57600080fd5b8435935060208501359250604085013567ffffffffffffffff8111156108a057600080fd5b6108ac878288016106ac565b95989497509550505050565b6000602082840312156108ca57600080fd5b81516107dc8161069e565b600060018060a01b038088168352602087151581850152866040850152818616606085015260a06080850152845191508160a085015260005b8281101561092a5785810182015185820160c00152810161090e565b5050600060c0828501015260c0601f19601f8301168401019150509695505050505050565b6000806040838503121561096257600080fd5b505080516020909101519092909150565b805161ffff8116811461098557600080fd5b919050565b600080600080600080600060e0888a0312156109a557600080fd5b87516109b081610686565b8097505060208801518060020b81146109c857600080fd5b95506109d660408901610973565b94506109e460608901610973565b93506109f260808901610973565b925060a088015160ff81168114610a0857600080fd5b60c0890151909250610a198161069e565b8091505092959891949750929550565b600060208284031215610a3b57600080fd5b81516001600160801b03811681146107dc57600080fd5b600060208284031215610a6457600080fd5b505191905056fea264697066735822122015360eeedacc5fbdb8f2fa120a1fea95665d50323ab878175341c65feffdf95e64736f6c63430008150033",
  "linkReferences": {},
  "deployedLinkReferences": {}
}