{
  "_format": "hh-sol-artifact-1",
  "contractName": "SwapObservation",
  "sourceName": "contracts/main/SwapObservation.sol",
  "abi": [
    {
      "inputs": [
        {
          "internalType": "bytes32",
          "name": "poolHash",
          "type": "bytes32"
        },
        {
          "internalType": "uint16",
          "name": "current",
          "type": "uint16"
        },
        {
          "internalType": "uint16",
          "name": "next",
          "type": "uint16"
        }
      ],
      "name": "grow",
      "outputs": [
        {
          "internalType": "uint16",
          "name": "",
          "type": "uint16"
        }
      ],
      "stateMutability": "nonpayable",
      "type": "function"
    },
    {
      "inputs": [
        {
          "internalType": "bytes32",
          "name": "poolHash",
          "type": "bytes32"
        },
        {
          "internalType": "uint32",
          "name": "time",
          "type": "uint32"
        }
      ],
      "name": "initialize",
      "outputs": [
        {
          "internalType": "uint16",
          "name": "cardinality",
          "type": "uint16"
        },
        {
          "internalType": "uint16",
          "name": "cardinalityNext",
          "type": "uint16"
        }
      ],
      "stateMutability": "nonpayable",
      "type": "function"
    },
    {
      "inputs": [
        {
          "internalType": "bytes32",
          "name": "poolHash",
          "type": "bytes32"
        },
        {
          "internalType": "uint32",
          "name": "time",
          "type": "uint32"
        },
        {
          "internalType": "uint32[]",
          "name": "secondsAgos",
          "type": "uint32[]"
        },
        {
          "internalType": "int24",
          "name": "tick",
          "type": "int24"
        },
        {
          "internalType": "uint16",
          "name": "index",
          "type": "uint16"
        },
        {
          "internalType": "uint128",
          "name": "liquidity",
          "type": "uint128"
        },
        {
          "internalType": "uint16",
          "name": "cardinality",
          "type": "uint16"
        }
      ],
      "name": "observe",
      "outputs": [
        {
          "internalType": "int56[]",
          "name": "tickCumulatives",
          "type": "int56[]"
        },
        {
          "internalType": "uint160[]",
          "name": "secondsPerLiquidityCumulativeX128s",
          "type": "uint160[]"
        }
      ],
      "stateMutability": "view",
      "type": "function"
    },
    {
      "inputs": [
        {
          "internalType": "bytes32",
          "name": "poolHash",
          "type": "bytes32"
        },
        {
          "internalType": "uint32",
          "name": "time",
          "type": "uint32"
        },
        {
          "internalType": "uint32",
          "name": "secondsAgo",
          "type": "uint32"
        },
        {
          "internalType": "int24",
          "name": "tick",
          "type": "int24"
        },
        {
          "internalType": "uint16",
          "name": "index",
          "type": "uint16"
        },
        {
          "internalType": "uint128",
          "name": "liquidity",
          "type": "uint128"
        },
        {
          "internalType": "uint16",
          "name": "cardinality",
          "type": "uint16"
        }
      ],
      "name": "observeSingle",
      "outputs": [
        {
          "internalType": "int56",
          "name": "tickCumulative",
          "type": "int56"
        },
        {
          "internalType": "uint160",
          "name": "secondsPerLiquidityCumulativeX128",
          "type": "uint160"
        }
      ],
      "stateMutability": "view",
      "type": "function"
    },
    {
      "inputs": [
        {
          "components": [
            {
              "internalType": "uint32",
              "name": "blockTimestamp",
              "type": "uint32"
            },
            {
              "internalType": "int56",
              "name": "tickCumulative",
              "type": "int56"
            },
            {
              "internalType": "uint160",
              "name": "secondsPerLiquidityCumulativeX128",
              "type": "uint160"
            }
          ],
          "internalType": "struct IOracleObservation.Observation",
          "name": "last",
          "type": "tuple"
        },
        {
          "internalType": "uint32",
          "name": "blockTimestamp",
          "type": "uint32"
        },
        {
          "internalType": "int24",
          "name": "tick",
          "type": "int24"
        },
        {
          "internalType": "uint128",
          "name": "liquidity",
          "type": "uint128"
        }
      ],
      "name": "transform",
      "outputs": [
        {
          "components": [
            {
              "internalType": "uint32",
              "name": "blockTimestamp",
              "type": "uint32"
            },
            {
              "internalType": "int56",
              "name": "tickCumulative",
              "type": "int56"
            },
            {
              "internalType": "uint160",
              "name": "secondsPerLiquidityCumulativeX128",
              "type": "uint160"
            }
          ],
          "internalType": "struct IOracleObservation.Observation",
          "name": "",
          "type": "tuple"
        }
      ],
      "stateMutability": "pure",
      "type": "function"
    },
    {
      "inputs": [
        {
          "internalType": "bytes32",
          "name": "poolHash",
          "type": "bytes32"
        },
        {
          "internalType": "uint16",
          "name": "currentIndex",
          "type": "uint16"
        },
        {
          "internalType": "uint32",
          "name": "blockTimestamp",
          "type": "uint32"
        },
        {
          "internalType": "int24",
          "name": "tick",
          "type": "int24"
        },
        {
          "internalType": "uint128",
          "name": "liquidity",
          "type": "uint128"
        },
        {
          "internalType": "uint16",
          "name": "cardinality",
          "type": "uint16"
        },
        {
          "internalType": "uint16",
          "name": "cardinalityNext",
          "type": "uint16"
        }
      ],
      "name": "write",
      "outputs": [
        {
          "internalType": "uint16",
          "name": "indexUpdated",
          "type": "uint16"
        },
        {
          "internalType": "uint16",
          "name": "cardinalityUpdated",
          "type": "uint16"
        }
      ],
      "stateMutability": "nonpayable",
      "type": "function"
    }
  ],
  "bytecode": "0x608060405234801561001057600080fd5b50611438806100206000396000f3fe608060405234801561001057600080fd5b50600436106100625760003560e01c8063396d1204146100675780636159ddfc14610091578063c3e8cb5e146100c6578063cdb4d844146100ec578063ce891dab146101b3578063f9a1bd47146101fa575b600080fd5b61007a610075366004610da4565b61020d565b604051610088929190610e76565b60405180910390f35b6100a461009f366004610efd565b610413565b6040805160069390930b83526001600160a01b03909116602083015201610088565b6100d96100d4366004610f7c565b6104bb565b60405161ffff9091168152602001610088565b6101986100fa366004610fb8565b600091825260208281526040808420815160608101835263ffffffff948516815280840186815292810186815282546001808201855593885294909620905193018054925195516001600160a01b0316600160581b02600160581b600160f81b031966ffffffffffffff909716600160201b026affffffffffffffffffffff1990941694909516939093179190911793909316919091179055908190565b6040805161ffff938416815292909116602083015201610088565b6101c66101c1366004610fe4565b610586565b60408051825163ffffffff16815260208084015160060b90820152918101516001600160a01b031690820152606001610088565b610198610208366004611040565b6105c6565b60608060008361ffff161161024d5760405162461bcd60e51b81526020600482015260016024820152604960f81b60448201526064015b60405180910390fd5b8667ffffffffffffffff811115610266576102666110a3565b60405190808252806020026020018201604052801561028f578160200160208202803683370190505b5091508667ffffffffffffffff8111156102ab576102ab6110a3565b6040519080825280602002602001820160405280156102d4578160200160208202803683370190505b50905060005b878110156104055760008b815260208181526040808320805482518185028101850190935280835261039e9492939192909184015b82821015610369576000848152602090819020604080516060810182529185015463ffffffff81168352600160201b810460060b83850152600160581b90046001600160a01b03169082015282526001909201910161030f565b505050508b8b8b85818110610380576103806110b9565b905060200201602081019061039591906110cf565b8a8a8a8a610746565b8483815181106103b0576103b06110b9565b602002602001018484815181106103c9576103c96110b9565b60200260200101826001600160a01b03166001600160a01b03168152508260060b60060b815250505080806103fd90611100565b9150506102da565b509850989650505050505050565b600087815260208181526040808320805482518185028101850190935280835284936104aa93929190859084015b8282101561049b576000848152602090819020604080516060810182529185015463ffffffff81168352600160201b810460060b83850152600160581b90046001600160a01b031690820152825260019092019101610441565b50505050898989898989610746565b915091505b97509795505050505050565b6000808361ffff16116104f45760405162461bcd60e51b81526020600482015260016024820152604960f81b6044820152606401610244565b8261ffff168261ffff161161050a57508161057f565b825b8261ffff168161ffff16101561057a5760016000808781526020019081526020016000208261ffff1681548110610545576105456110b9565b6000918252602090912001805463ffffffff191663ffffffff929092169190911790558061057281611119565b91505061050c565b508190505b9392505050565b60408051606081018252600080825260208201819052918101919091526105bd6105b53687900387018761113a565b8585856108f0565b95945050505050565b600087815260208190526040812080548291908290829061ffff8c169081106105f1576105f16110b9565b600091825260209182902060408051606081018252929091015463ffffffff808216808552600160201b830460060b95850195909552600160581b9091046001600160a01b0316918301919091529092508a1690036106575789869350935050506104af565b8561ffff168561ffff1611801561067f57506106746001876111ca565b61ffff168a61ffff16145b610689578561068b565b845b9250826106998b60016111ec565b6106a3919061121d565b93506106b1818a8a8a6108f0565b828561ffff16815481106106c7576106c76110b9565b6000918252602091829020835191018054928401516040909401516001600160a01b0316600160581b02600160581b600160f81b031966ffffffffffffff909516600160201b026affffffffffffffffffffff1990941663ffffffff909316929092179290921792909216919091179055505097509795505050505050565b6000808663ffffffff166000036107b3576000898661ffff168151811061076f5761076f6110b9565b602002602001015190508863ffffffff16816000015163ffffffff161461079f5761079c818a89886108f0565b90505b8060200151816040015192509250506104af565b60006107bf888a61123e565b90506000806107d38c8c858c8c8c8c6109bc565b91509150816000015163ffffffff168363ffffffff16036108045781602001518260400151945094505050506104af565b806000015163ffffffff168363ffffffff16036108315780602001518160400151945094505050506104af565b815181516000916108419161123e565b8351909150600090610853908661123e565b90508060030b8260030b85602001518560200151610871919061125b565b61087b919061128e565b61088591906112cc565b846020015161089491906112ec565b8263ffffffff168263ffffffff16866040015186604001516108b69190611319565b6001600160a01b03166108c99190611339565b6108d39190611350565b85604001516108e29190611364565b9650965050505050506104af565b6040805160608101825260008082526020820181905291810191909152845160009061091c908661123e565b905060405180606001604052808663ffffffff1681526020018260030b8660020b61094791906112cc565b886020015161095691906112ec565b60060b81526020016000856001600160801b031611610976576001610978565b845b610998906001600160801b031663ffffffff60801b608086901b16611384565b88604001516109a79190611364565b6001600160a01b031690529695505050505050565b60408051606081018252600080825260208201819052918101919091526040805160608101825260008082526020820181905291810191909152888561ffff1681518110610a0c57610a0c6110b9565b60200260200101519150610a2588836000015189610b05565b15610a5157815163ffffffff8881169116146104af5781610a48838989886108f0565b915091506104af565b8883610a5e8760016111ec565b610a68919061121d565b61ffff1681518110610a7c57610a7c6110b9565b602002602001015191506000826000015163ffffffff161115610ab75788600081518110610aac57610aac6110b9565b602002602001015191505b610ac688836000015189610b05565b610af85760405162461bcd60e51b815260206004820152600360248201526213d31160ea1b6044820152606401610244565b6104aa8989898887610bd4565b60008363ffffffff168363ffffffff1611158015610b2f57508363ffffffff168263ffffffff1611155b15610b4b578163ffffffff168363ffffffff161115905061057f565b60008463ffffffff168463ffffffff1611610b7957610b7463ffffffff8516600160201b6113aa565b610b81565b8363ffffffff165b64ffffffffff16905060008563ffffffff168463ffffffff1611610bb857610bb363ffffffff8516600160201b6113aa565b610bc0565b8363ffffffff165b64ffffffffff169091111595945050505050565b604080516060808201835260008083526020808401829052838501829052845192830185528183528201819052928101839052909183610c158660016111ec565b610c1f919061121d565b61ffff169050600060018561ffff1683610c3991906113c8565b610c4391906113db565b905060005b6002610c5483856113c8565b610c5e9190611350565b905089610c6f61ffff8816836113ee565b81518110610c7f57610c7f6110b9565b602002602001015194506000856000015163ffffffff161115610cae57610ca78160016113c8565b9250610c48565b8961ffff8716610cbf8360016113c8565b610cc991906113ee565b81518110610cd957610cd96110b9565b602002602001015193506000610cf48a87600001518b610b05565b9050808015610d0d5750610d0d8a8a8760000151610b05565b15610d185750610d43565b80610d2f57610d286001836113db565b9250610d3d565b610d3a8260016113c8565b93505b50610c48565b5050509550959350505050565b803563ffffffff81168114610d6457600080fd5b919050565b8035600281900b8114610d6457600080fd5b803561ffff81168114610d6457600080fd5b80356001600160801b0381168114610d6457600080fd5b60008060008060008060008060e0898b031215610dc057600080fd5b88359750610dd060208a01610d50565b9650604089013567ffffffffffffffff80821115610ded57600080fd5b818b0191508b601f830112610e0157600080fd5b813581811115610e1057600080fd5b8c60208260051b8501011115610e2557600080fd5b602083019850809750505050610e3d60608a01610d69565b9350610e4b60808a01610d7b565b9250610e5960a08a01610d8d565b9150610e6760c08a01610d7b565b90509295985092959890939650565b604080825283519082018190526000906020906060840190828701845b82811015610eb257815160060b84529284019290840190600101610e93565b5050508381038285015284518082528583019183019060005b81811015610ef05783516001600160a01b031683529284019291840191600101610ecb565b5090979650505050505050565b600080600080600080600060e0888a031215610f1857600080fd5b87359650610f2860208901610d50565b9550610f3660408901610d50565b9450610f4460608901610d69565b9350610f5260808901610d7b565b9250610f6060a08901610d8d565b9150610f6e60c08901610d7b565b905092959891949750929550565b600080600060608486031215610f9157600080fd5b83359250610fa160208501610d7b565b9150610faf60408501610d7b565b90509250925092565b60008060408385031215610fcb57600080fd5b82359150610fdb60208401610d50565b90509250929050565b60008060008084860360c0811215610ffb57600080fd5b606081121561100957600080fd5b5084935061101960608601610d50565b925061102760808601610d69565b915061103560a08601610d8d565b905092959194509250565b600080600080600080600060e0888a03121561105b57600080fd5b8735965061106b60208901610d7b565b955061107960408901610d50565b945061108760608901610d69565b935061109560808901610d8d565b9250610f6060a08901610d7b565b634e487b7160e01b600052604160045260246000fd5b634e487b7160e01b600052603260045260246000fd5b6000602082840312156110e157600080fd5b61057f82610d50565b634e487b7160e01b600052601160045260246000fd5b600060018201611112576111126110ea565b5060010190565b600061ffff808316818103611130576111306110ea565b6001019392505050565b60006060828403121561114c57600080fd5b6040516060810181811067ffffffffffffffff8211171561117d57634e487b7160e01b600052604160045260246000fd5b60405261118983610d50565b815260208301358060060b811461119f57600080fd5b602082015260408301356001600160a01b03811681146111be57600080fd5b60408201529392505050565b61ffff8281168282160390808211156111e5576111e56110ea565b5092915050565b61ffff8181168382160190808211156111e5576111e56110ea565b634e487b7160e01b600052601260045260246000fd5b600061ffff8084168061123257611232611207565b92169190910692915050565b63ffffffff8281168282160390808211156111e5576111e56110ea565b600682810b9082900b03667fffffffffffff198112667fffffffffffff82131715611288576112886110ea565b92915050565b60008160060b8360060b806112a5576112a5611207565b667fffffffffffff198214600019821416156112c3576112c36110ea565b90059392505050565b60008260060b8260060b028060060b91508082146111e5576111e56110ea565b600681810b9083900b01667fffffffffffff8113667fffffffffffff1982121715611288576112886110ea565b6001600160a01b038281168282160390808211156111e5576111e56110ea565b8082028115828204841417611288576112886110ea565b60008261135f5761135f611207565b500490565b6001600160a01b038181168382160190808211156111e5576111e56110ea565b60006001600160a01b038381168061139e5761139e611207565b92169190910492915050565b64ffffffffff8181168382160190808211156111e5576111e56110ea565b80820180821115611288576112886110ea565b81810381811115611288576112886110ea565b6000826113fd576113fd611207565b50069056fea2646970667358221220eb2e81c14d029e51097309305c551c618d1b56e7bfec9b0af636382c6c1797e764736f6c63430008150033",
  "linkReferences": {},
  "deployedLinkReferences": {}
}