{
  "_format": "hh-sol-artifact-1",
  "contractName": "SwapMinter",
  "sourceName": "contracts/utilities/SwapPoolSetup.sol",
  "abi": [
    {
      "inputs": [
        {
          "internalType": "uint256",
          "name": "amount0",
          "type": "uint256"
        },
        {
          "internalType": "uint256",
          "name": "amount1",
          "type": "uint256"
        },
        {
          "internalType": "bytes",
          "name": "data",
          "type": "bytes"
        }
      ],
      "name": "SwapMintCallback",
      "outputs": [],
      "stateMutability": "nonpayable",
      "type": "function"
    },
    {
      "inputs": [
        {
          "internalType": "int24",
          "name": "_tickLower",
          "type": "int24"
        },
        {
          "internalType": "int24",
          "name": "_tickUpper",
          "type": "int24"
        },
        {
          "internalType": "uint128",
          "name": "_amount",
          "type": "uint128"
        }
      ],
      "name": "doBurn",
      "outputs": [
        {
          "components": [
            {
              "internalType": "uint128",
              "name": "liq",
              "type": "uint128"
            },
            {
              "internalType": "uint128",
              "name": "tL_liqGross",
              "type": "uint128"
            },
            {
              "internalType": "int128",
              "name": "tL_liqNet",
              "type": "int128"
            },
            {
              "internalType": "uint128",
              "name": "tU_liqGross",
              "type": "uint128"
            },
            {
              "internalType": "int128",
              "name": "tU_liqNet",
              "type": "int128"
            }
          ],
          "internalType": "struct SwapMinter.MinterStats",
          "name": "bfre",
          "type": "tuple"
        },
        {
          "components": [
            {
              "internalType": "uint128",
              "name": "liq",
              "type": "uint128"
            },
            {
              "internalType": "uint128",
              "name": "tL_liqGross",
              "type": "uint128"
            },
            {
              "internalType": "int128",
              "name": "tL_liqNet",
              "type": "int128"
            },
            {
              "internalType": "uint128",
              "name": "tU_liqGross",
              "type": "uint128"
            },
            {
              "internalType": "int128",
              "name": "tU_liqNet",
              "type": "int128"
            }
          ],
          "internalType": "struct SwapMinter.MinterStats",
          "name": "aftr",
          "type": "tuple"
        }
      ],
      "stateMutability": "nonpayable",
      "type": "function"
    },
    {
      "inputs": [
        {
          "internalType": "address",
          "name": "recipient",
          "type": "address"
        },
        {
          "internalType": "int24",
          "name": "tickLower",
          "type": "int24"
        },
        {
          "internalType": "int24",
          "name": "tickUpper",
          "type": "int24"
        },
        {
          "internalType": "uint128",
          "name": "amount",
          "type": "uint128"
        },
        {
          "internalType": "bytes",
          "name": "data",
          "type": "bytes"
        }
      ],
      "name": "mint",
      "outputs": [
        {
          "components": [
            {
              "internalType": "uint128",
              "name": "liq",
              "type": "uint128"
            },
            {
              "internalType": "uint128",
              "name": "tL_liqGross",
              "type": "uint128"
            },
            {
              "internalType": "int128",
              "name": "tL_liqNet",
              "type": "int128"
            },
            {
              "internalType": "uint128",
              "name": "tU_liqGross",
              "type": "uint128"
            },
            {
              "internalType": "int128",
              "name": "tU_liqNet",
              "type": "int128"
            }
          ],
          "internalType": "struct SwapMinter.MinterStats",
          "name": "bfre",
          "type": "tuple"
        },
        {
          "components": [
            {
              "internalType": "uint128",
              "name": "liq",
              "type": "uint128"
            },
            {
              "internalType": "uint128",
              "name": "tL_liqGross",
              "type": "uint128"
            },
            {
              "internalType": "int128",
              "name": "tL_liqNet",
              "type": "int128"
            },
            {
              "internalType": "uint128",
              "name": "tU_liqGross",
              "type": "uint128"
            },
            {
              "internalType": "int128",
              "name": "tU_liqNet",
              "type": "int128"
            }
          ],
          "internalType": "struct SwapMinter.MinterStats",
          "name": "aftr",
          "type": "tuple"
        }
      ],
      "stateMutability": "nonpayable",
      "type": "function"
    },
    {
      "inputs": [
        {
          "internalType": "int24",
          "name": "tickLower",
          "type": "int24"
        },
        {
          "internalType": "int24",
          "name": "tickUpper",
          "type": "int24"
        },
        {
          "internalType": "uint128",
          "name": "amount",
          "type": "uint128"
        }
      ],
      "name": "pureMint",
      "outputs": [
        {
          "components": [
            {
              "internalType": "uint128",
              "name": "liq",
              "type": "uint128"
            },
            {
              "internalType": "uint128",
              "name": "tL_liqGross",
              "type": "uint128"
            },
            {
              "internalType": "int128",
              "name": "tL_liqNet",
              "type": "int128"
            },
            {
              "internalType": "uint128",
              "name": "tU_liqGross",
              "type": "uint128"
            },
            {
              "internalType": "int128",
              "name": "tU_liqNet",
              "type": "int128"
            }
          ],
          "internalType": "struct SwapMinter.MinterStats",
          "name": "bfre",
          "type": "tuple"
        },
        {
          "components": [
            {
              "internalType": "uint128",
              "name": "liq",
              "type": "uint128"
            },
            {
              "internalType": "uint128",
              "name": "tL_liqGross",
              "type": "uint128"
            },
            {
              "internalType": "int128",
              "name": "tL_liqNet",
              "type": "int128"
            },
            {
              "internalType": "uint128",
              "name": "tU_liqGross",
              "type": "uint128"
            },
            {
              "internalType": "int128",
              "name": "tU_liqNet",
              "type": "int128"
            }
          ],
          "internalType": "struct SwapMinter.MinterStats",
          "name": "aftr",
          "type": "tuple"
        }
      ],
      "stateMutability": "nonpayable",
      "type": "function"
    },
    {
      "inputs": [
        {
          "internalType": "contract SwapPool",
          "name": "_pool",
          "type": "address"
        },
        {
          "internalType": "contract IERC20",
          "name": "_token0",
          "type": "address"
        },
        {
          "internalType": "contract IERC20",
          "name": "_token1",
          "type": "address"
        }
      ],
      "name": "setPool",
      "outputs": [],
      "stateMutability": "nonpayable",
      "type": "function"
    }
  ],
  "bytecode": "0x608060405234801561001057600080fd5b50610a6b806100206000396000f3fe608060405234801561001057600080fd5b50600436106100575760003560e01c8063258eb3261461005c578063268e518a146100865780633c8a7d8d146100995780635080e7db146100ac5780639a62b39a146100c1575b600080fd5b61006f61006a36600461066f565b61010e565b60405161007d9291906106fb565b60405180910390f35b61006f61009436600461066f565b6101c7565b61006f6100a736600461077c565b610203565b6100bf6100ba366004610806565b610265565b005b6100bf6100cf366004610859565b600080546001600160a01b039485166001600160a01b031991821617909155600180549385169382169390931790925560028054919093169116179055565b610116610612565b61011e610612565b610128858561036d565b60005460405163a34123a760e01b8152600288810b600483015287900b60248201526001600160801b03861660448201529193506001600160a01b03169063a34123a79060640160408051808303816000875af115801561018d573d6000803e3d6000fd5b505050506040513d601f19601f820116820180604052508101906101b19190610899565b50506101bd858561036d565b9050935093915050565b6101cf610612565b6101d7610612565b6040805160008152602081019091526101f7903090879087908790610445565b91509150935093915050565b61020b610612565b610213610612565b6102568888888888888080601f01602080910402602001604051908101604052809392919081815260200183838082843760009201919091525061044592505050565b91509150965096945050505050565b83156102e65760015460005460405163a9059cbb60e01b81526001600160a01b0391821660048201526024810187905291169063a9059cbb906044016020604051808303816000875af11580156102c0573d6000803e3d6000fd5b505050506040513d601f19601f820116820180604052508101906102e491906108cd565b505b82156103675760025460005460405163a9059cbb60e01b81526001600160a01b0391821660048201526024810186905291169063a9059cbb906044016020604051808303816000875af1158015610341573d6000803e3d6000fd5b505050506040513d601f19601f8201168201806040525081019061036591906108cd565b505b50505050565b610375610612565b60008060008061038587876104f2565b93509350935093506040518060a0016040528060008054906101000a90046001600160a01b03166001600160a01b0316631a6865026040518163ffffffff1660e01b8152600401602060405180830381865afa1580156103e9573d6000803e3d6000fd5b505050506040513d601f19601f8201168201806040525081019061040d91906108e8565b6001600160801b0390811682529586166020820152600f94850b604082015292909416606083015290910b6080909101529392505050565b61044d610612565b610455610612565b61045f868661036d565b600054604051633c8a7d8d60e01b81529193506001600160a01b031690633c8a7d8d90610498908a908a908a908a908a90600401610905565b60408051808303816000875af11580156104b6573d6000803e3d6000fd5b505050506040513d601f19601f820116820180604052508101906104da9190610899565b50506104e6868661036d565b90509550959350505050565b6000805460405163f30dba9360e01b8152600285900b6004820152829182918291829182916001600160a01b03169063f30dba939060240161010060405180830381865afa158015610548573d6000803e3d6000fd5b505050506040513d601f19601f8201168201806040525081019061056c9190610987565b50506000805460405163f30dba9360e01b81529799509597509586956001600160a01b0316945063f30dba9393506105b392508d915060040160029190910b815260200190565b61010060405180830381865afa1580156105d1573d6000803e3d6000fd5b505050506040513d601f19601f820116820180604052508101906105f59190610987565b50999d50979b509399509197505050505050505092959194509250565b6040805160a08101825260008082526020820181905291810182905260608101829052608081019190915290565b8035600281900b811461065257600080fd5b919050565b6001600160801b038116811461066c57600080fd5b50565b60008060006060848603121561068457600080fd5b61068d84610640565b925061069b60208501610640565b915060408401356106ab81610657565b809150509250925092565b6001600160801b038082511683528060208301511660208401526040820151600f0b6040840152806060830151166060840152506080810151600f0b60808301525050565b610140810161070a82856106b6565b61071760a08301846106b6565b9392505050565b6001600160a01b038116811461066c57600080fd5b60008083601f84011261074557600080fd5b50813567ffffffffffffffff81111561075d57600080fd5b60208301915083602082850101111561077557600080fd5b9250929050565b60008060008060008060a0878903121561079557600080fd5b86356107a08161071e565b95506107ae60208801610640565b94506107bc60408801610640565b935060608701356107cc81610657565b9250608087013567ffffffffffffffff8111156107e857600080fd5b6107f489828a01610733565b979a9699509497509295939492505050565b6000806000806060858703121561081c57600080fd5b8435935060208501359250604085013567ffffffffffffffff81111561084157600080fd5b61084d87828801610733565b95989497509550505050565b60008060006060848603121561086e57600080fd5b83356108798161071e565b925060208401356108898161071e565b915060408401356106ab8161071e565b600080604083850312156108ac57600080fd5b505080516020909101519092909150565b8051801515811461065257600080fd5b6000602082840312156108df57600080fd5b610717826108bd565b6000602082840312156108fa57600080fd5b815161071781610657565b60018060a01b0386168152600060208660020b818401528560020b60408401526001600160801b038516606084015260a0608084015283518060a085015260005b818110156109625785810183015185820160c001528201610946565b50600060c0828601015260c0601f19601f830116850101925050509695505050505050565b600080600080600080600080610100898b0312156109a457600080fd5b88516109af81610657565b80985050602089015180600f0b81146109c757600080fd5b80975050604089015195506060890151945060808901518060060b81146109ed57600080fd5b60a08a01519094506109fe8161071e565b60c08a015190935063ffffffff81168114610a1857600080fd5b9150610a2660e08a016108bd565b9050929598509295989093965056fea26469706673582212206d4b86be1bca6ac2ac7716e57f594ab8005b7f0f385d87ffe08d4a18ec2fdb7764736f6c63430008150033",
  "linkReferences": {},
  "deployedLinkReferences": {}
}